{
	"data": {
		"bytecode": {
			"linkReferences": {},
			"object": "608060405261015e60055534801562000016575f80fd5b5060405162002426380380620024268339810160408190526200003991620000da565b806001600160a01b0381166200006857604051631e4fbdf760e01b81525f600482015260240160405180910390fd5b62000073816200008b565b50505f805460ff60a01b191690556001805562000109565b5f80546001600160a01b038381166001600160a01b0319831681178455604051919092169283917f8be0079c531659141344cd1fd0a4f28419497f9722a3daafe3b4186f6b6457e09190a35050565b5f60208284031215620000eb575f80fd5b81516001600160a01b038116811462000102575f80fd5b9392505050565b61230f80620001175f395ff3fe608060405260043610610165575f3560e01c8063925a9953116100c6578063cc4aa2041161007c578063de74e57b11610057578063de74e57b14610502578063df706cbc146105cd578063f2fde38b146105f9575f80fd5b8063cc4aa204146104a4578063cf02976f146104d0578063d68cdc52146104ef575f80fd5b80639cefe029116100ac5780639cefe0291461045e578063a82ba76f1461047d578063c85d526214610490575f80fd5b8063925a99531461042c57806398590ef91461044b575f80fd5b806365a19c201161011b578063715018a611610101578063715018a6146103af5780638699fdf4146103c35780638da5cb5b146103e2575f80fd5b806365a19c20146103725780636ee4c12014610390575f80fd5b8063249e10c51161014b578063249e10c5146103065780633ec62279146103255780635c975abb14610339575f80fd5b80630ea59c4b146101a857806321f67fbb146102f0575f80fd5b366101a457604080513381523460208201527fe1fffcc4923d04b559f4d29a8bfc6cda04eb5b0d3c460751c2402c5c5cc9109c910160405180910390a1005b5f80fd5b3480156101b3575f80fd5b5061027e6101c2366004612091565b6040805160c0810182525f80825260208201819052918101829052606081018290526080810182905260a0810191909152505f90815260096020908152604091829020825160c081018452815473ffffffffffffffffffffffffffffffffffffffff908116825260018301549382019390935260028201549381019390935260038101548216606084015260040154908116608083015274010000000000000000000000000000000000000000900460ff16151560a082015290565b6040516102e791905f60c08201905073ffffffffffffffffffffffffffffffffffffffff80845116835260208401516020840152604084015160408401528060608501511660608401528060808501511660808401525060a0830151151560a083015292915050565b60405180910390f35b3480156102fb575f80fd5b50610304610618565b005b348015610311575f80fd5b50610304610320366004612091565b61062a565b348015610330575f80fd5b506103046109f5565b348015610344575f80fd5b505f5474010000000000000000000000000000000000000000900460ff1660405190151581526020016102e7565b34801561037d575f80fd5b506005545b6040519081526020016102e7565b34801561039b575f80fd5b506103046103aa3660046120c9565b610a05565b3480156103ba575f80fd5b50610304610cee565b3480156103ce575f80fd5b506103826103dd3660046120f7565b610cff565b3480156103ed575f80fd5b505f5473ffffffffffffffffffffffffffffffffffffffff165b60405173ffffffffffffffffffffffffffffffffffffffff90911681526020016102e7565b348015610437575f80fd5b50610304610446366004612121565b610d70565b6103046104593660046120f7565b611063565b348015610469575f80fd5b50610304610478366004612091565b6112a0565b61030461048b3660046120f7565b6112ad565b34801561049b575f80fd5b506103826117c1565b3480156104af575f80fd5b506002546104079073ffffffffffffffffffffffffffffffffffffffff1681565b3480156104db575f80fd5b506103826104ea3660046120f7565b6117d0565b6103046104fd366004612160565b61188d565b34801561050d575f80fd5b5061058161051c366004612091565b60096020525f90815260409020805460018201546002830154600384015460049094015473ffffffffffffffffffffffffffffffffffffffff938416949293919282169181169074010000000000000000000000000000000000000000900460ff1686565b6040805173ffffffffffffffffffffffffffffffffffffffff978816815260208101969096528501939093529084166060840152909216608082015290151560a082015260c0016102e7565b3480156105d8575f80fd5b506003546104079073ffffffffffffffffffffffffffffffffffffffff1681565b348015610604575f80fd5b506103046106133660046121a7565b611cdf565b610620611d3f565b610628611d91565b565b610632611e0d565b61063a611e91565b5f818152600960205260409020811580159061065857506004548211155b6106c3576040517f08c379a000000000000000000000000000000000000000000000000000000000815260206004820152601260248201527f6974656d20646f65736e2774206578697374000000000000000000000000000060448201526064015b60405180910390fd5b600481015474010000000000000000000000000000000000000000900460ff1615155f0361074d576040517f08c379a000000000000000000000000000000000000000000000000000000000815260206004820152601460248201527f6974656d206973206e6f7420666f722073656c6c00000000000000000000000060448201526064016106ba565b60048101543373ffffffffffffffffffffffffffffffffffffffff909116036107d2576040517f08c379a000000000000000000000000000000000000000000000000000000000815260206004820152601b60248201527f596f752063616e6e6f742062757920796f7572206f776e206e6674000000000060448201526064016106ba565b600281015460088190556005546107f791612710916107f19190611f04565b90611f16565b600681905560085461080891611f21565b60078190556003820154600280547fffffffffffffffffffffffff00000000000000000000000000000000000000001673ffffffffffffffffffffffffffffffffffffffff9283169081179091556004808501546040517fa9059cbb000000000000000000000000000000000000000000000000000000008152931690830152602482019290925263a9059cbb906044016020604051808303815f875af11580156108b5573d5f803e3d5ffd5b505050506040513d601f19601f820116820180604052508101906108d991906121c2565b506002546007546040517fa9059cbb000000000000000000000000000000000000000000000000000000008152336004820152602481019190915273ffffffffffffffffffffffffffffffffffffffff9091169063a9059cbb906044016020604051808303815f875af1158015610952573d5f803e3d5ffd5b505050506040513d601f19601f8201168201806040525081019061097691906121c2565b506004810180547fffffffffffffffffffffff00ffffffffffffffffffffffffffffffffffffffff16905560018101546007546040805133815260208101939093528201527fc0790eb4899023169be51dd7074a99a15959464f9a0e6b19767d8d61539b87269060600160405180910390a1506109f260018055565b50565b6109fd611d3f565b610628611f2c565b610a0d611e0d565b610a15611e91565b610a1d611d3f565b815f03610a86576040517f08c379a000000000000000000000000000000000000000000000000000000000815260206004820152601560248201527f416d6f756e742063616e6e6f74206265207a65726f000000000000000000000060448201526064016106ba565b73ffffffffffffffffffffffffffffffffffffffff8116610b28576040517f08c379a0000000000000000000000000000000000000000000000000000000008152602060048201526024808201527f455243323020616464726573732063616e6e6f74206265207a65726f2061646460448201527f726573730000000000000000000000000000000000000000000000000000000060648201526084016106ba565b600280547fffffffffffffffffffffffff00000000000000000000000000000000000000001673ffffffffffffffffffffffffffffffffffffffff83169081179091556040517f70a082310000000000000000000000000000000000000000000000000000000081523060048201526370a0823190602401602060405180830381865afa158015610bbb573d5f803e3d5ffd5b505050506040513d601f19601f82011682018060405250810190610bdf91906121e1565b821115610c48576040517f08c379a000000000000000000000000000000000000000000000000000000000815260206004820152601360248201527f496e73756666696369656e742066756e64732e0000000000000000000000000060448201526064016106ba565b6002546040517fa9059cbb0000000000000000000000000000000000000000000000000000000081523360048201526024810184905273ffffffffffffffffffffffffffffffffffffffff9091169063a9059cbb906044016020604051808303815f875af1158015610cbc573d5f803e3d5ffd5b505050506040513d601f19601f82011682018060405250810190610ce091906121c2565b50610cea60018055565b5050565b610cf6611d3f565b6106285f611f9a565b5f60015b6004548111610d65575f818152600960205260409020805473ffffffffffffffffffffffffffffffffffffffff8681169116148015610d455750838160010154145b15610d5257509050610d6a565b5080610d5d81612225565b915050610d03565b505f90505b92915050565b610d78611e0d565b610d80611e91565b610d88611d3f565b5f8281526009602052604090208215801590610da657506004548311155b610e0c576040517f08c379a000000000000000000000000000000000000000000000000000000000815260206004820152601260248201527f6974656d20646f65736e2774206578697374000000000000000000000000000060448201526064016106ba565b600481015474010000000000000000000000000000000000000000900460ff1615155f03610e96576040517f08c379a000000000000000000000000000000000000000000000000000000000815260206004820152601460248201527f6974656d206973206e6f7420666f722073656c6c00000000000000000000000060448201526064016106ba565b600481015473ffffffffffffffffffffffffffffffffffffffff808416911603610f1c576040517f08c379a000000000000000000000000000000000000000000000000000000000815260206004820152601b60248201527f596f752063616e6e6f742062757920796f7572206f776e206e6674000000000060448201526064016106ba565b805473ffffffffffffffffffffffffffffffffffffffff858116911614610fc5576040517f08c379a000000000000000000000000000000000000000000000000000000000815260206004820152602560248201527f6974656d206973206e6f74207468652073616d6520636f6e747261637420616460448201527f647265737300000000000000000000000000000000000000000000000000000060648201526084016106ba565b6004810180547fffffffffffffffffffffff0000000000000000000000000000000000000000001673ffffffffffffffffffffffffffffffffffffffff841690811790915560018201546002830154604080519384526020840192909252908201527ffc2e01ec8c4c53e02ee1fa8816c1692687966e0daef195be5b64c88d8e58e3ee9060600160405180910390a15061105e60018055565b505050565b5f818152600960205260409020600401548290829073ffffffffffffffffffffffffffffffffffffffff163314611098575f80fd5b5f8181526009602052604090205473ffffffffffffffffffffffffffffffffffffffff8381169116146110c9575f80fd5b5f838152600960205260409020600481015473ffffffffffffffffffffffffffffffffffffffff163314611159576040517f08c379a000000000000000000000000000000000000000000000000000000000815260206004820152601160248201527f6973206e6f74207468652073656c6c657200000000000000000000000000000060448201526064016106ba565b600481015474010000000000000000000000000000000000000000900460ff1615156001146111e4576040517f08c379a000000000000000000000000000000000000000000000000000000000815260206004820152600f60248201527f6973206e6f74206c697374656e6564000000000000000000000000000000000060448201526064016106ba565b60018101546040517f23b872dd000000000000000000000000000000000000000000000000000000008152306004820152336024820152604481019190915273ffffffffffffffffffffffffffffffffffffffff8616906323b872dd906064015f604051808303815f87803b15801561125b575f80fd5b505af115801561126d573d5f803e3d5ffd5b5050505060040180547fffffffffffffffffffffff00ffffffffffffffffffffffffffffffffffffffff16905550505050565b6112a8611d3f565b600555565b6112b5611e0d565b6112bd611e91565b5f81815260096020526040902081158015906112db57506004548211155b611341576040517f08c379a000000000000000000000000000000000000000000000000000000000815260206004820152601260248201527f6974656d20646f65736e2774206578697374000000000000000000000000000060448201526064016106ba565b600481015474010000000000000000000000000000000000000000900460ff1615155f036113cb576040517f08c379a000000000000000000000000000000000000000000000000000000000815260206004820152601460248201527f6974656d206973206e6f7420666f722073656c6c00000000000000000000000060448201526064016106ba565b60048101543373ffffffffffffffffffffffffffffffffffffffff90911603611450576040517f08c379a000000000000000000000000000000000000000000000000000000000815260206004820152601b60248201527f596f752063616e6e6f742062757920796f7572206f776e206e6674000000000060448201526064016106ba565b805473ffffffffffffffffffffffffffffffffffffffff8481169116146114f9576040517f08c379a000000000000000000000000000000000000000000000000000000000815260206004820152602560248201527f6974656d206973206e6f74207468652073616d6520636f6e747261637420616460448201527f647265737300000000000000000000000000000000000000000000000000000060648201526084016106ba565b806002015434101561158d576040517f08c379a000000000000000000000000000000000000000000000000000000000815260206004820152602760248201527f6e6f7420656e6f7567682062616c616e636520666f722074686973207472616e60448201527f73616374696f6e0000000000000000000000000000000000000000000000000060648201526084016106ba565b600281015460088190556005546115ac91612710916107f19190611f04565b60068190556008546115bd91611f21565b60078190556003820154600280547fffffffffffffffffffffffff00000000000000000000000000000000000000001673ffffffffffffffffffffffffffffffffffffffff9283169081179091556004808501546040517fa9059cbb000000000000000000000000000000000000000000000000000000008152931690830152602482019290925263a9059cbb906044016020604051808303815f875af115801561166a573d5f803e3d5ffd5b505050506040513d601f19601f8201168201806040525081019061168e91906121c2565b5060018101546040517f23b872dd000000000000000000000000000000000000000000000000000000008152306004820152336024820152604481019190915273ffffffffffffffffffffffffffffffffffffffff8416906323b872dd906064015f604051808303815f87803b158015611706575f80fd5b505af1158015611718573d5f803e3d5ffd5b505050506004810180547fffffffffffffffffffffff00000000000000000000000000000000000000000016337fffffffffffffffffffffff00ffffffffffffffffffffffffffffffffffffffff8116919091179091556001820154600754604080519384526020840192909252908201527fc0790eb4899023169be51dd7074a99a15959464f9a0e6b19767d8d61539b87269060600160405180910390a150610cea60018055565b5f6117cb60045490565b905090565b5f8060015b6004548111611876575f8181526009602052604090205473ffffffffffffffffffffffffffffffffffffffff868116911614801561182257505f8181526009602052604090206001015484145b801561185657505f8181526009602052604090206004015474010000000000000000000000000000000000000000900460ff165b156118645760019150611876565b8061186e81612225565b9150506117d5565b81611885575f92505050610d6a565b949350505050565b6040517f6352211e00000000000000000000000000000000000000000000000000000000815260048101849052339073ffffffffffffffffffffffffffffffffffffffff861690636352211e90602401602060405180830381865afa1580156118f8573d5f803e3d5ffd5b505050506040513d601f19601f8201168201806040525081019061191c919061225c565b73ffffffffffffffffffffffffffffffffffffffff1614611999576040517f08c379a000000000000000000000000000000000000000000000000000000000815260206004820152601560248201527f596f7520617265206e6f7420746865206f776e6572000000000000000000000060448201526064016106ba565b5f8211611a28576040517f08c379a000000000000000000000000000000000000000000000000000000000815260206004820152602760248201527f4e46544d61726b65743a207072696365206d757374206265206772656174657260448201527f207468616e20300000000000000000000000000000000000000000000000000060648201526084016106ba565b611a36600480546001019055565b6040518060c001604052808573ffffffffffffffffffffffffffffffffffffffff1681526020018481526020018381526020018273ffffffffffffffffffffffffffffffffffffffff1681526020013373ffffffffffffffffffffffffffffffffffffffff1681526020015f151581525060095f611ab360045490565b815260208082019290925260409081015f9081208451815473ffffffffffffffffffffffffffffffffffffffff9182167fffffffffffffffffffffffff00000000000000000000000000000000000000009182161783559486015160018301559285015160028201556060850151600382018054918516919095161790935560808401516004938401805460a090960151151574010000000000000000000000000000000000000000027fffffffffffffffffffffff00000000000000000000000000000000000000000090961691909316179390931790556009908290611b99905490565b8152602081019190915260409081015f2090517f23b872dd0000000000000000000000000000000000000000000000000000000081523360048201523060248201526044810186905290915073ffffffffffffffffffffffffffffffffffffffff8616906323b872dd906064015f604051808303815f87803b158015611c1d575f80fd5b505af1158015611c2f573d5f803e3d5ffd5b505050600480830180547fffffffffffffffffffffff00ffffffffffffffffffffffffffffffffffffffff16740100000000000000000000000000000000000000001790557f21149a5778ddc1afca837b00fd70c0fc0a6d1d25d1bd15bff4a84bab1eeb9a92915033908690611ca3905490565b6040805173ffffffffffffffffffffffffffffffffffffffff909416845260208401929092529082015260600160405180910390a15050505050565b611ce7611d3f565b73ffffffffffffffffffffffffffffffffffffffff8116611d36576040517f1e4fbdf70000000000000000000000000000000000000000000000000000000081525f60048201526024016106ba565b6109f281611f9a565b5f5473ffffffffffffffffffffffffffffffffffffffff163314610628576040517f118cdaa70000000000000000000000000000000000000000000000000000000081523360048201526024016106ba565b611d9961200e565b5f80547fffffffffffffffffffffff00ffffffffffffffffffffffffffffffffffffffff1690557f5db9ee0a495bf2e6ff9c91a7834c1ba4fdd244a5e8aa4e537bd38aeae4b073aa335b60405173ffffffffffffffffffffffffffffffffffffffff909116815260200160405180910390a1565b5f5474010000000000000000000000000000000000000000900460ff1615610628576040517f08c379a000000000000000000000000000000000000000000000000000000000815260206004820152601060248201527f5061757361626c653a207061757365640000000000000000000000000000000060448201526064016106ba565b600260015403611efd576040517f08c379a000000000000000000000000000000000000000000000000000000000815260206004820152601f60248201527f5265656e7472616e637947756172643a207265656e7472616e742063616c6c0060448201526064016106ba565b6002600155565b5f611f0f8284612277565b9392505050565b5f611f0f828461228e565b5f611f0f82846122c6565b611f34611e0d565b5f80547fffffffffffffffffffffff00ffffffffffffffffffffffffffffffffffffffff16740100000000000000000000000000000000000000001790557f62e78cea01bee320cd4e420270b5ea74000d11b0c9f74754ebdbfc544b05a258611de33390565b5f805473ffffffffffffffffffffffffffffffffffffffff8381167fffffffffffffffffffffffff0000000000000000000000000000000000000000831681178455604051919092169283917f8be0079c531659141344cd1fd0a4f28419497f9722a3daafe3b4186f6b6457e09190a35050565b5f5474010000000000000000000000000000000000000000900460ff16610628576040517f08c379a000000000000000000000000000000000000000000000000000000000815260206004820152601460248201527f5061757361626c653a206e6f742070617573656400000000000000000000000060448201526064016106ba565b5f602082840312156120a1575f80fd5b5035919050565b73ffffffffffffffffffffffffffffffffffffffff811681146109f2575f80fd5b5f80604083850312156120da575f80fd5b8235915060208301356120ec816120a8565b809150509250929050565b5f8060408385031215612108575f80fd5b8235612113816120a8565b946020939093013593505050565b5f805f60608486031215612133575f80fd5b833561213e816120a8565b9250602084013591506040840135612155816120a8565b809150509250925092565b5f805f8060808587031215612173575f80fd5b843561217e816120a8565b93506020850135925060408501359150606085013561219c816120a8565b939692955090935050565b5f602082840312156121b7575f80fd5b8135611f0f816120a8565b5f602082840312156121d2575f80fd5b81518015158114611f0f575f80fd5b5f602082840312156121f1575f80fd5b5051919050565b7f4e487b71000000000000000000000000000000000000000000000000000000005f52601160045260245ffd5b5f7fffffffffffffffffffffffffffffffffffffffffffffffffffffffffffffffff8203612255576122556121f8565b5060010190565b5f6020828403121561226c575f80fd5b8151611f0f816120a8565b8082028115828204841417610d6a57610d6a6121f8565b5f826122c1577f4e487b71000000000000000000000000000000000000000000000000000000005f52601260045260245ffd5b500490565b81810381811115610d6a57610d6a6121f856fea2646970667358221220f88f35f3154eae5d966207d5a92c99548d02ec4a8c05676b45199a3953dfa35f64736f6c63430008160033",
			"opcodes": "PUSH1 0x80 PUSH1 0x40 MSTORE PUSH2 0x15E PUSH1 0x5 SSTORE CALLVALUE DUP1 ISZERO PUSH3 0x16 JUMPI PUSH0 DUP1 REVERT JUMPDEST POP PUSH1 0x40 MLOAD PUSH3 0x2426 CODESIZE SUB DUP1 PUSH3 0x2426 DUP4 CODECOPY DUP2 ADD PUSH1 0x40 DUP2 SWAP1 MSTORE PUSH3 0x39 SWAP2 PUSH3 0xDA JUMP JUMPDEST DUP1 PUSH1 0x1 PUSH1 0x1 PUSH1 0xA0 SHL SUB DUP2 AND PUSH3 0x68 JUMPI PUSH1 0x40 MLOAD PUSH4 0x1E4FBDF7 PUSH1 0xE0 SHL DUP2 MSTORE PUSH0 PUSH1 0x4 DUP3 ADD MSTORE PUSH1 0x24 ADD PUSH1 0x40 MLOAD DUP1 SWAP2 SUB SWAP1 REVERT JUMPDEST PUSH3 0x73 DUP2 PUSH3 0x8B JUMP JUMPDEST POP POP PUSH0 DUP1 SLOAD PUSH1 0xFF PUSH1 0xA0 SHL NOT AND SWAP1 SSTORE PUSH1 0x1 DUP1 SSTORE PUSH3 0x109 JUMP JUMPDEST PUSH0 DUP1 SLOAD PUSH1 0x1 PUSH1 0x1 PUSH1 0xA0 SHL SUB DUP4 DUP2 AND PUSH1 0x1 PUSH1 0x1 PUSH1 0xA0 SHL SUB NOT DUP4 AND DUP2 OR DUP5 SSTORE PUSH1 0x40 MLOAD SWAP2 SWAP1 SWAP3 AND SWAP3 DUP4 SWAP2 PUSH32 0x8BE0079C531659141344CD1FD0A4F28419497F9722A3DAAFE3B4186F6B6457E0 SWAP2 SWAP1 LOG3 POP POP JUMP JUMPDEST PUSH0 PUSH1 0x20 DUP3 DUP5 SUB SLT ISZERO PUSH3 0xEB JUMPI PUSH0 DUP1 REVERT JUMPDEST DUP2 MLOAD PUSH1 0x1 PUSH1 0x1 PUSH1 0xA0 SHL SUB DUP2 AND DUP2 EQ PUSH3 0x102 JUMPI PUSH0 DUP1 REVERT JUMPDEST SWAP4 SWAP3 POP POP POP JUMP JUMPDEST PUSH2 0x230F DUP1 PUSH3 0x117 PUSH0 CODECOPY PUSH0 RETURN INVALID PUSH1 0x80 PUSH1 0x40 MSTORE PUSH1 0x4 CALLDATASIZE LT PUSH2 0x165 JUMPI PUSH0 CALLDATALOAD PUSH1 0xE0 SHR DUP1 PUSH4 0x925A9953 GT PUSH2 0xC6 JUMPI DUP1 PUSH4 0xCC4AA204 GT PUSH2 0x7C JUMPI DUP1 PUSH4 0xDE74E57B GT PUSH2 0x57 JUMPI DUP1 PUSH4 0xDE74E57B EQ PUSH2 0x502 JUMPI DUP1 PUSH4 0xDF706CBC EQ PUSH2 0x5CD JUMPI DUP1 PUSH4 0xF2FDE38B EQ PUSH2 0x5F9 JUMPI PUSH0 DUP1 REVERT JUMPDEST DUP1 PUSH4 0xCC4AA204 EQ PUSH2 0x4A4 JUMPI DUP1 PUSH4 0xCF02976F EQ PUSH2 0x4D0 JUMPI DUP1 PUSH4 0xD68CDC52 EQ PUSH2 0x4EF JUMPI PUSH0 DUP1 REVERT JUMPDEST DUP1 PUSH4 0x9CEFE029 GT PUSH2 0xAC JUMPI DUP1 PUSH4 0x9CEFE029 EQ PUSH2 0x45E JUMPI DUP1 PUSH4 0xA82BA76F EQ PUSH2 0x47D JUMPI DUP1 PUSH4 0xC85D5262 EQ PUSH2 0x490 JUMPI PUSH0 DUP1 REVERT JUMPDEST DUP1 PUSH4 0x925A9953 EQ PUSH2 0x42C JUMPI DUP1 PUSH4 0x98590EF9 EQ PUSH2 0x44B JUMPI PUSH0 DUP1 REVERT JUMPDEST DUP1 PUSH4 0x65A19C20 GT PUSH2 0x11B JUMPI DUP1 PUSH4 0x715018A6 GT PUSH2 0x101 JUMPI DUP1 PUSH4 0x715018A6 EQ PUSH2 0x3AF JUMPI DUP1 PUSH4 0x8699FDF4 EQ PUSH2 0x3C3 JUMPI DUP1 PUSH4 0x8DA5CB5B EQ PUSH2 0x3E2 JUMPI PUSH0 DUP1 REVERT JUMPDEST DUP1 PUSH4 0x65A19C20 EQ PUSH2 0x372 JUMPI DUP1 PUSH4 0x6EE4C120 EQ PUSH2 0x390 JUMPI PUSH0 DUP1 REVERT JUMPDEST DUP1 PUSH4 0x249E10C5 GT PUSH2 0x14B JUMPI DUP1 PUSH4 0x249E10C5 EQ PUSH2 0x306 JUMPI DUP1 PUSH4 0x3EC62279 EQ PUSH2 0x325 JUMPI DUP1 PUSH4 0x5C975ABB EQ PUSH2 0x339 JUMPI PUSH0 DUP1 REVERT JUMPDEST DUP1 PUSH4 0xEA59C4B EQ PUSH2 0x1A8 JUMPI DUP1 PUSH4 0x21F67FBB EQ PUSH2 0x2F0 JUMPI PUSH0 DUP1 REVERT JUMPDEST CALLDATASIZE PUSH2 0x1A4 JUMPI PUSH1 0x40 DUP1 MLOAD CALLER DUP2 MSTORE CALLVALUE PUSH1 0x20 DUP3 ADD MSTORE PUSH32 0xE1FFFCC4923D04B559F4D29A8BFC6CDA04EB5B0D3C460751C2402C5C5CC9109C SWAP2 ADD PUSH1 0x40 MLOAD DUP1 SWAP2 SUB SWAP1 LOG1 STOP JUMPDEST PUSH0 DUP1 REVERT JUMPDEST CALLVALUE DUP1 ISZERO PUSH2 0x1B3 JUMPI PUSH0 DUP1 REVERT JUMPDEST POP PUSH2 0x27E PUSH2 0x1C2 CALLDATASIZE PUSH1 0x4 PUSH2 0x2091 JUMP JUMPDEST PUSH1 0x40 DUP1 MLOAD PUSH1 0xC0 DUP2 ADD DUP3 MSTORE PUSH0 DUP1 DUP3 MSTORE PUSH1 0x20 DUP3 ADD DUP2 SWAP1 MSTORE SWAP2 DUP2 ADD DUP3 SWAP1 MSTORE PUSH1 0x60 DUP2 ADD DUP3 SWAP1 MSTORE PUSH1 0x80 DUP2 ADD DUP3 SWAP1 MSTORE PUSH1 0xA0 DUP2 ADD SWAP2 SWAP1 SWAP2 MSTORE POP PUSH0 SWAP1 DUP2 MSTORE PUSH1 0x9 PUSH1 0x20 SWAP1 DUP2 MSTORE PUSH1 0x40 SWAP2 DUP3 SWAP1 KECCAK256 DUP3 MLOAD PUSH1 0xC0 DUP2 ADD DUP5 MSTORE DUP2 SLOAD PUSH20 0xFFFFFFFFFFFFFFFFFFFFFFFFFFFFFFFFFFFFFFFF SWAP1 DUP2 AND DUP3 MSTORE PUSH1 0x1 DUP4 ADD SLOAD SWAP4 DUP3 ADD SWAP4 SWAP1 SWAP4 MSTORE PUSH1 0x2 DUP3 ADD SLOAD SWAP4 DUP2 ADD SWAP4 SWAP1 SWAP4 MSTORE PUSH1 0x3 DUP2 ADD SLOAD DUP3 AND PUSH1 0x60 DUP5 ADD MSTORE PUSH1 0x4 ADD SLOAD SWAP1 DUP2 AND PUSH1 0x80 DUP4 ADD MSTORE PUSH21 0x10000000000000000000000000000000000000000 SWAP1 DIV PUSH1 0xFF AND ISZERO ISZERO PUSH1 0xA0 DUP3 ADD MSTORE SWAP1 JUMP JUMPDEST PUSH1 0x40 MLOAD PUSH2 0x2E7 SWAP2 SWAP1 PUSH0 PUSH1 0xC0 DUP3 ADD SWAP1 POP PUSH20 0xFFFFFFFFFFFFFFFFFFFFFFFFFFFFFFFFFFFFFFFF DUP1 DUP5 MLOAD AND DUP4 MSTORE PUSH1 0x20 DUP5 ADD MLOAD PUSH1 0x20 DUP5 ADD MSTORE PUSH1 0x40 DUP5 ADD MLOAD PUSH1 0x40 DUP5 ADD MSTORE DUP1 PUSH1 0x60 DUP6 ADD MLOAD AND PUSH1 0x60 DUP5 ADD MSTORE DUP1 PUSH1 0x80 DUP6 ADD MLOAD AND PUSH1 0x80 DUP5 ADD MSTORE POP PUSH1 0xA0 DUP4 ADD MLOAD ISZERO ISZERO PUSH1 0xA0 DUP4 ADD MSTORE SWAP3 SWAP2 POP POP JUMP JUMPDEST PUSH1 0x40 MLOAD DUP1 SWAP2 SUB SWAP1 RETURN JUMPDEST CALLVALUE DUP1 ISZERO PUSH2 0x2FB JUMPI PUSH0 DUP1 REVERT JUMPDEST POP PUSH2 0x304 PUSH2 0x618 JUMP JUMPDEST STOP JUMPDEST CALLVALUE DUP1 ISZERO PUSH2 0x311 JUMPI PUSH0 DUP1 REVERT JUMPDEST POP PUSH2 0x304 PUSH2 0x320 CALLDATASIZE PUSH1 0x4 PUSH2 0x2091 JUMP JUMPDEST PUSH2 0x62A JUMP JUMPDEST CALLVALUE DUP1 ISZERO PUSH2 0x330 JUMPI PUSH0 DUP1 REVERT JUMPDEST POP PUSH2 0x304 PUSH2 0x9F5 JUMP JUMPDEST CALLVALUE DUP1 ISZERO PUSH2 0x344 JUMPI PUSH0 DUP1 REVERT JUMPDEST POP PUSH0 SLOAD PUSH21 0x10000000000000000000000000000000000000000 SWAP1 DIV PUSH1 0xFF AND PUSH1 0x40 MLOAD SWAP1 ISZERO ISZERO DUP2 MSTORE PUSH1 0x20 ADD PUSH2 0x2E7 JUMP JUMPDEST CALLVALUE DUP1 ISZERO PUSH2 0x37D JUMPI PUSH0 DUP1 REVERT JUMPDEST POP PUSH1 0x5 SLOAD JUMPDEST PUSH1 0x40 MLOAD SWAP1 DUP2 MSTORE PUSH1 0x20 ADD PUSH2 0x2E7 JUMP JUMPDEST CALLVALUE DUP1 ISZERO PUSH2 0x39B JUMPI PUSH0 DUP1 REVERT JUMPDEST POP PUSH2 0x304 PUSH2 0x3AA CALLDATASIZE PUSH1 0x4 PUSH2 0x20C9 JUMP JUMPDEST PUSH2 0xA05 JUMP JUMPDEST CALLVALUE DUP1 ISZERO PUSH2 0x3BA JUMPI PUSH0 DUP1 REVERT JUMPDEST POP PUSH2 0x304 PUSH2 0xCEE JUMP JUMPDEST CALLVALUE DUP1 ISZERO PUSH2 0x3CE JUMPI PUSH0 DUP1 REVERT JUMPDEST POP PUSH2 0x382 PUSH2 0x3DD CALLDATASIZE PUSH1 0x4 PUSH2 0x20F7 JUMP JUMPDEST PUSH2 0xCFF JUMP JUMPDEST CALLVALUE DUP1 ISZERO PUSH2 0x3ED JUMPI PUSH0 DUP1 REVERT JUMPDEST POP PUSH0 SLOAD PUSH20 0xFFFFFFFFFFFFFFFFFFFFFFFFFFFFFFFFFFFFFFFF AND JUMPDEST PUSH1 0x40 MLOAD PUSH20 0xFFFFFFFFFFFFFFFFFFFFFFFFFFFFFFFFFFFFFFFF SWAP1 SWAP2 AND DUP2 MSTORE PUSH1 0x20 ADD PUSH2 0x2E7 JUMP JUMPDEST CALLVALUE DUP1 ISZERO PUSH2 0x437 JUMPI PUSH0 DUP1 REVERT JUMPDEST POP PUSH2 0x304 PUSH2 0x446 CALLDATASIZE PUSH1 0x4 PUSH2 0x2121 JUMP JUMPDEST PUSH2 0xD70 JUMP JUMPDEST PUSH2 0x304 PUSH2 0x459 CALLDATASIZE PUSH1 0x4 PUSH2 0x20F7 JUMP JUMPDEST PUSH2 0x1063 JUMP JUMPDEST CALLVALUE DUP1 ISZERO PUSH2 0x469 JUMPI PUSH0 DUP1 REVERT JUMPDEST POP PUSH2 0x304 PUSH2 0x478 CALLDATASIZE PUSH1 0x4 PUSH2 0x2091 JUMP JUMPDEST PUSH2 0x12A0 JUMP JUMPDEST PUSH2 0x304 PUSH2 0x48B CALLDATASIZE PUSH1 0x4 PUSH2 0x20F7 JUMP JUMPDEST PUSH2 0x12AD JUMP JUMPDEST CALLVALUE DUP1 ISZERO PUSH2 0x49B JUMPI PUSH0 DUP1 REVERT JUMPDEST POP PUSH2 0x382 PUSH2 0x17C1 JUMP JUMPDEST CALLVALUE DUP1 ISZERO PUSH2 0x4AF JUMPI PUSH0 DUP1 REVERT JUMPDEST POP PUSH1 0x2 SLOAD PUSH2 0x407 SWAP1 PUSH20 0xFFFFFFFFFFFFFFFFFFFFFFFFFFFFFFFFFFFFFFFF AND DUP2 JUMP JUMPDEST CALLVALUE DUP1 ISZERO PUSH2 0x4DB JUMPI PUSH0 DUP1 REVERT JUMPDEST POP PUSH2 0x382 PUSH2 0x4EA CALLDATASIZE PUSH1 0x4 PUSH2 0x20F7 JUMP JUMPDEST PUSH2 0x17D0 JUMP JUMPDEST PUSH2 0x304 PUSH2 0x4FD CALLDATASIZE PUSH1 0x4 PUSH2 0x2160 JUMP JUMPDEST PUSH2 0x188D JUMP JUMPDEST CALLVALUE DUP1 ISZERO PUSH2 0x50D JUMPI PUSH0 DUP1 REVERT JUMPDEST POP PUSH2 0x581 PUSH2 0x51C CALLDATASIZE PUSH1 0x4 PUSH2 0x2091 JUMP JUMPDEST PUSH1 0x9 PUSH1 0x20 MSTORE PUSH0 SWAP1 DUP2 MSTORE PUSH1 0x40 SWAP1 KECCAK256 DUP1 SLOAD PUSH1 0x1 DUP3 ADD SLOAD PUSH1 0x2 DUP4 ADD SLOAD PUSH1 0x3 DUP5 ADD SLOAD PUSH1 0x4 SWAP1 SWAP5 ADD SLOAD PUSH20 0xFFFFFFFFFFFFFFFFFFFFFFFFFFFFFFFFFFFFFFFF SWAP4 DUP5 AND SWAP5 SWAP3 SWAP4 SWAP2 SWAP3 DUP3 AND SWAP2 DUP2 AND SWAP1 PUSH21 0x10000000000000000000000000000000000000000 SWAP1 DIV PUSH1 0xFF AND DUP7 JUMP JUMPDEST PUSH1 0x40 DUP1 MLOAD PUSH20 0xFFFFFFFFFFFFFFFFFFFFFFFFFFFFFFFFFFFFFFFF SWAP8 DUP9 AND DUP2 MSTORE PUSH1 0x20 DUP2 ADD SWAP7 SWAP1 SWAP7 MSTORE DUP6 ADD SWAP4 SWAP1 SWAP4 MSTORE SWAP1 DUP5 AND PUSH1 0x60 DUP5 ADD MSTORE SWAP1 SWAP3 AND PUSH1 0x80 DUP3 ADD MSTORE SWAP1 ISZERO ISZERO PUSH1 0xA0 DUP3 ADD MSTORE PUSH1 0xC0 ADD PUSH2 0x2E7 JUMP JUMPDEST CALLVALUE DUP1 ISZERO PUSH2 0x5D8 JUMPI PUSH0 DUP1 REVERT JUMPDEST POP PUSH1 0x3 SLOAD PUSH2 0x407 SWAP1 PUSH20 0xFFFFFFFFFFFFFFFFFFFFFFFFFFFFFFFFFFFFFFFF AND DUP2 JUMP JUMPDEST CALLVALUE DUP1 ISZERO PUSH2 0x604 JUMPI PUSH0 DUP1 REVERT JUMPDEST POP PUSH2 0x304 PUSH2 0x613 CALLDATASIZE PUSH1 0x4 PUSH2 0x21A7 JUMP JUMPDEST PUSH2 0x1CDF JUMP JUMPDEST PUSH2 0x620 PUSH2 0x1D3F JUMP JUMPDEST PUSH2 0x628 PUSH2 0x1D91 JUMP JUMPDEST JUMP JUMPDEST PUSH2 0x632 PUSH2 0x1E0D JUMP JUMPDEST PUSH2 0x63A PUSH2 0x1E91 JUMP JUMPDEST PUSH0 DUP2 DUP2 MSTORE PUSH1 0x9 PUSH1 0x20 MSTORE PUSH1 0x40 SWAP1 KECCAK256 DUP2 ISZERO DUP1 ISZERO SWAP1 PUSH2 0x658 JUMPI POP PUSH1 0x4 SLOAD DUP3 GT ISZERO JUMPDEST PUSH2 0x6C3 JUMPI PUSH1 0x40 MLOAD PUSH32 0x8C379A000000000000000000000000000000000000000000000000000000000 DUP2 MSTORE PUSH1 0x20 PUSH1 0x4 DUP3 ADD MSTORE PUSH1 0x12 PUSH1 0x24 DUP3 ADD MSTORE PUSH32 0x6974656D20646F65736E27742065786973740000000000000000000000000000 PUSH1 0x44 DUP3 ADD MSTORE PUSH1 0x64 ADD JUMPDEST PUSH1 0x40 MLOAD DUP1 SWAP2 SUB SWAP1 REVERT JUMPDEST PUSH1 0x4 DUP2 ADD SLOAD PUSH21 0x10000000000000000000000000000000000000000 SWAP1 DIV PUSH1 0xFF AND ISZERO ISZERO PUSH0 SUB PUSH2 0x74D JUMPI PUSH1 0x40 MLOAD PUSH32 0x8C379A000000000000000000000000000000000000000000000000000000000 DUP2 MSTORE PUSH1 0x20 PUSH1 0x4 DUP3 ADD MSTORE PUSH1 0x14 PUSH1 0x24 DUP3 ADD MSTORE PUSH32 0x6974656D206973206E6F7420666F722073656C6C000000000000000000000000 PUSH1 0x44 DUP3 ADD MSTORE PUSH1 0x64 ADD PUSH2 0x6BA JUMP JUMPDEST PUSH1 0x4 DUP2 ADD SLOAD CALLER PUSH20 0xFFFFFFFFFFFFFFFFFFFFFFFFFFFFFFFFFFFFFFFF SWAP1 SWAP2 AND SUB PUSH2 0x7D2 JUMPI PUSH1 0x40 MLOAD PUSH32 0x8C379A000000000000000000000000000000000000000000000000000000000 DUP2 MSTORE PUSH1 0x20 PUSH1 0x4 DUP3 ADD MSTORE PUSH1 0x1B PUSH1 0x24 DUP3 ADD MSTORE PUSH32 0x596F752063616E6E6F742062757920796F7572206F776E206E66740000000000 PUSH1 0x44 DUP3 ADD MSTORE PUSH1 0x64 ADD PUSH2 0x6BA JUMP JUMPDEST PUSH1 0x2 DUP2 ADD SLOAD PUSH1 0x8 DUP2 SWAP1 SSTORE PUSH1 0x5 SLOAD PUSH2 0x7F7 SWAP2 PUSH2 0x2710 SWAP2 PUSH2 0x7F1 SWAP2 SWAP1 PUSH2 0x1F04 JUMP JUMPDEST SWAP1 PUSH2 0x1F16 JUMP JUMPDEST PUSH1 0x6 DUP2 SWAP1 SSTORE PUSH1 0x8 SLOAD PUSH2 0x808 SWAP2 PUSH2 0x1F21 JUMP JUMPDEST PUSH1 0x7 DUP2 SWAP1 SSTORE PUSH1 0x3 DUP3 ADD SLOAD PUSH1 0x2 DUP1 SLOAD PUSH32 0xFFFFFFFFFFFFFFFFFFFFFFFF0000000000000000000000000000000000000000 AND PUSH20 0xFFFFFFFFFFFFFFFFFFFFFFFFFFFFFFFFFFFFFFFF SWAP3 DUP4 AND SWAP1 DUP2 OR SWAP1 SWAP2 SSTORE PUSH1 0x4 DUP1 DUP6 ADD SLOAD PUSH1 0x40 MLOAD PUSH32 0xA9059CBB00000000000000000000000000000000000000000000000000000000 DUP2 MSTORE SWAP4 AND SWAP1 DUP4 ADD MSTORE PUSH1 0x24 DUP3 ADD SWAP3 SWAP1 SWAP3 MSTORE PUSH4 0xA9059CBB SWAP1 PUSH1 0x44 ADD PUSH1 0x20 PUSH1 0x40 MLOAD DUP1 DUP4 SUB DUP2 PUSH0 DUP8 GAS CALL ISZERO DUP1 ISZERO PUSH2 0x8B5 JUMPI RETURNDATASIZE PUSH0 DUP1 RETURNDATACOPY RETURNDATASIZE PUSH0 REVERT JUMPDEST POP POP POP POP PUSH1 0x40 MLOAD RETURNDATASIZE PUSH1 0x1F NOT PUSH1 0x1F DUP3 ADD AND DUP3 ADD DUP1 PUSH1 0x40 MSTORE POP DUP2 ADD SWAP1 PUSH2 0x8D9 SWAP2 SWAP1 PUSH2 0x21C2 JUMP JUMPDEST POP PUSH1 0x2 SLOAD PUSH1 0x7 SLOAD PUSH1 0x40 MLOAD PUSH32 0xA9059CBB00000000000000000000000000000000000000000000000000000000 DUP2 MSTORE CALLER PUSH1 0x4 DUP3 ADD MSTORE PUSH1 0x24 DUP2 ADD SWAP2 SWAP1 SWAP2 MSTORE PUSH20 0xFFFFFFFFFFFFFFFFFFFFFFFFFFFFFFFFFFFFFFFF SWAP1 SWAP2 AND SWAP1 PUSH4 0xA9059CBB SWAP1 PUSH1 0x44 ADD PUSH1 0x20 PUSH1 0x40 MLOAD DUP1 DUP4 SUB DUP2 PUSH0 DUP8 GAS CALL ISZERO DUP1 ISZERO PUSH2 0x952 JUMPI RETURNDATASIZE PUSH0 DUP1 RETURNDATACOPY RETURNDATASIZE PUSH0 REVERT JUMPDEST POP POP POP POP PUSH1 0x40 MLOAD RETURNDATASIZE PUSH1 0x1F NOT PUSH1 0x1F DUP3 ADD AND DUP3 ADD DUP1 PUSH1 0x40 MSTORE POP DUP2 ADD SWAP1 PUSH2 0x976 SWAP2 SWAP1 PUSH2 0x21C2 JUMP JUMPDEST POP PUSH1 0x4 DUP2 ADD DUP1 SLOAD PUSH32 0xFFFFFFFFFFFFFFFFFFFFFF00FFFFFFFFFFFFFFFFFFFFFFFFFFFFFFFFFFFFFFFF AND SWAP1 SSTORE PUSH1 0x1 DUP2 ADD SLOAD PUSH1 0x7 SLOAD PUSH1 0x40 DUP1 MLOAD CALLER DUP2 MSTORE PUSH1 0x20 DUP2 ADD SWAP4 SWAP1 SWAP4 MSTORE DUP3 ADD MSTORE PUSH32 0xC0790EB4899023169BE51DD7074A99A15959464F9A0E6B19767D8D61539B8726 SWAP1 PUSH1 0x60 ADD PUSH1 0x40 MLOAD DUP1 SWAP2 SUB SWAP1 LOG1 POP PUSH2 0x9F2 PUSH1 0x1 DUP1 SSTORE JUMP JUMPDEST POP JUMP JUMPDEST PUSH2 0x9FD PUSH2 0x1D3F JUMP JUMPDEST PUSH2 0x628 PUSH2 0x1F2C JUMP JUMPDEST PUSH2 0xA0D PUSH2 0x1E0D JUMP JUMPDEST PUSH2 0xA15 PUSH2 0x1E91 JUMP JUMPDEST PUSH2 0xA1D PUSH2 0x1D3F JUMP JUMPDEST DUP2 PUSH0 SUB PUSH2 0xA86 JUMPI PUSH1 0x40 MLOAD PUSH32 0x8C379A000000000000000000000000000000000000000000000000000000000 DUP2 MSTORE PUSH1 0x20 PUSH1 0x4 DUP3 ADD MSTORE PUSH1 0x15 PUSH1 0x24 DUP3 ADD MSTORE PUSH32 0x416D6F756E742063616E6E6F74206265207A65726F0000000000000000000000 PUSH1 0x44 DUP3 ADD MSTORE PUSH1 0x64 ADD PUSH2 0x6BA JUMP JUMPDEST PUSH20 0xFFFFFFFFFFFFFFFFFFFFFFFFFFFFFFFFFFFFFFFF DUP2 AND PUSH2 0xB28 JUMPI PUSH1 0x40 MLOAD PUSH32 0x8C379A000000000000000000000000000000000000000000000000000000000 DUP2 MSTORE PUSH1 0x20 PUSH1 0x4 DUP3 ADD MSTORE PUSH1 0x24 DUP1 DUP3 ADD MSTORE PUSH32 0x455243323020616464726573732063616E6E6F74206265207A65726F20616464 PUSH1 0x44 DUP3 ADD MSTORE PUSH32 0x7265737300000000000000000000000000000000000000000000000000000000 PUSH1 0x64 DUP3 ADD MSTORE PUSH1 0x84 ADD PUSH2 0x6BA JUMP JUMPDEST PUSH1 0x2 DUP1 SLOAD PUSH32 0xFFFFFFFFFFFFFFFFFFFFFFFF0000000000000000000000000000000000000000 AND PUSH20 0xFFFFFFFFFFFFFFFFFFFFFFFFFFFFFFFFFFFFFFFF DUP4 AND SWAP1 DUP2 OR SWAP1 SWAP2 SSTORE PUSH1 0x40 MLOAD PUSH32 0x70A0823100000000000000000000000000000000000000000000000000000000 DUP2 MSTORE ADDRESS PUSH1 0x4 DUP3 ADD MSTORE PUSH4 0x70A08231 SWAP1 PUSH1 0x24 ADD PUSH1 0x20 PUSH1 0x40 MLOAD DUP1 DUP4 SUB DUP2 DUP7 GAS STATICCALL ISZERO DUP1 ISZERO PUSH2 0xBBB JUMPI RETURNDATASIZE PUSH0 DUP1 RETURNDATACOPY RETURNDATASIZE PUSH0 REVERT JUMPDEST POP POP POP POP PUSH1 0x40 MLOAD RETURNDATASIZE PUSH1 0x1F NOT PUSH1 0x1F DUP3 ADD AND DUP3 ADD DUP1 PUSH1 0x40 MSTORE POP DUP2 ADD SWAP1 PUSH2 0xBDF SWAP2 SWAP1 PUSH2 0x21E1 JUMP JUMPDEST DUP3 GT ISZERO PUSH2 0xC48 JUMPI PUSH1 0x40 MLOAD PUSH32 0x8C379A000000000000000000000000000000000000000000000000000000000 DUP2 MSTORE PUSH1 0x20 PUSH1 0x4 DUP3 ADD MSTORE PUSH1 0x13 PUSH1 0x24 DUP3 ADD MSTORE PUSH32 0x496E73756666696369656E742066756E64732E00000000000000000000000000 PUSH1 0x44 DUP3 ADD MSTORE PUSH1 0x64 ADD PUSH2 0x6BA JUMP JUMPDEST PUSH1 0x2 SLOAD PUSH1 0x40 MLOAD PUSH32 0xA9059CBB00000000000000000000000000000000000000000000000000000000 DUP2 MSTORE CALLER PUSH1 0x4 DUP3 ADD MSTORE PUSH1 0x24 DUP2 ADD DUP5 SWAP1 MSTORE PUSH20 0xFFFFFFFFFFFFFFFFFFFFFFFFFFFFFFFFFFFFFFFF SWAP1 SWAP2 AND SWAP1 PUSH4 0xA9059CBB SWAP1 PUSH1 0x44 ADD PUSH1 0x20 PUSH1 0x40 MLOAD DUP1 DUP4 SUB DUP2 PUSH0 DUP8 GAS CALL ISZERO DUP1 ISZERO PUSH2 0xCBC JUMPI RETURNDATASIZE PUSH0 DUP1 RETURNDATACOPY RETURNDATASIZE PUSH0 REVERT JUMPDEST POP POP POP POP PUSH1 0x40 MLOAD RETURNDATASIZE PUSH1 0x1F NOT PUSH1 0x1F DUP3 ADD AND DUP3 ADD DUP1 PUSH1 0x40 MSTORE POP DUP2 ADD SWAP1 PUSH2 0xCE0 SWAP2 SWAP1 PUSH2 0x21C2 JUMP JUMPDEST POP PUSH2 0xCEA PUSH1 0x1 DUP1 SSTORE JUMP JUMPDEST POP POP JUMP JUMPDEST PUSH2 0xCF6 PUSH2 0x1D3F JUMP JUMPDEST PUSH2 0x628 PUSH0 PUSH2 0x1F9A JUMP JUMPDEST PUSH0 PUSH1 0x1 JUMPDEST PUSH1 0x4 SLOAD DUP2 GT PUSH2 0xD65 JUMPI PUSH0 DUP2 DUP2 MSTORE PUSH1 0x9 PUSH1 0x20 MSTORE PUSH1 0x40 SWAP1 KECCAK256 DUP1 SLOAD PUSH20 0xFFFFFFFFFFFFFFFFFFFFFFFFFFFFFFFFFFFFFFFF DUP7 DUP2 AND SWAP2 AND EQ DUP1 ISZERO PUSH2 0xD45 JUMPI POP DUP4 DUP2 PUSH1 0x1 ADD SLOAD EQ JUMPDEST ISZERO PUSH2 0xD52 JUMPI POP SWAP1 POP PUSH2 0xD6A JUMP JUMPDEST POP DUP1 PUSH2 0xD5D DUP2 PUSH2 0x2225 JUMP JUMPDEST SWAP2 POP POP PUSH2 0xD03 JUMP JUMPDEST POP PUSH0 SWAP1 POP JUMPDEST SWAP3 SWAP2 POP POP JUMP JUMPDEST PUSH2 0xD78 PUSH2 0x1E0D JUMP JUMPDEST PUSH2 0xD80 PUSH2 0x1E91 JUMP JUMPDEST PUSH2 0xD88 PUSH2 0x1D3F JUMP JUMPDEST PUSH0 DUP3 DUP2 MSTORE PUSH1 0x9 PUSH1 0x20 MSTORE PUSH1 0x40 SWAP1 KECCAK256 DUP3 ISZERO DUP1 ISZERO SWAP1 PUSH2 0xDA6 JUMPI POP PUSH1 0x4 SLOAD DUP4 GT ISZERO JUMPDEST PUSH2 0xE0C JUMPI PUSH1 0x40 MLOAD PUSH32 0x8C379A000000000000000000000000000000000000000000000000000000000 DUP2 MSTORE PUSH1 0x20 PUSH1 0x4 DUP3 ADD MSTORE PUSH1 0x12 PUSH1 0x24 DUP3 ADD MSTORE PUSH32 0x6974656D20646F65736E27742065786973740000000000000000000000000000 PUSH1 0x44 DUP3 ADD MSTORE PUSH1 0x64 ADD PUSH2 0x6BA JUMP JUMPDEST PUSH1 0x4 DUP2 ADD SLOAD PUSH21 0x10000000000000000000000000000000000000000 SWAP1 DIV PUSH1 0xFF AND ISZERO ISZERO PUSH0 SUB PUSH2 0xE96 JUMPI PUSH1 0x40 MLOAD PUSH32 0x8C379A000000000000000000000000000000000000000000000000000000000 DUP2 MSTORE PUSH1 0x20 PUSH1 0x4 DUP3 ADD MSTORE PUSH1 0x14 PUSH1 0x24 DUP3 ADD MSTORE PUSH32 0x6974656D206973206E6F7420666F722073656C6C000000000000000000000000 PUSH1 0x44 DUP3 ADD MSTORE PUSH1 0x64 ADD PUSH2 0x6BA JUMP JUMPDEST PUSH1 0x4 DUP2 ADD SLOAD PUSH20 0xFFFFFFFFFFFFFFFFFFFFFFFFFFFFFFFFFFFFFFFF DUP1 DUP5 AND SWAP2 AND SUB PUSH2 0xF1C JUMPI PUSH1 0x40 MLOAD PUSH32 0x8C379A000000000000000000000000000000000000000000000000000000000 DUP2 MSTORE PUSH1 0x20 PUSH1 0x4 DUP3 ADD MSTORE PUSH1 0x1B PUSH1 0x24 DUP3 ADD MSTORE PUSH32 0x596F752063616E6E6F742062757920796F7572206F776E206E66740000000000 PUSH1 0x44 DUP3 ADD MSTORE PUSH1 0x64 ADD PUSH2 0x6BA JUMP JUMPDEST DUP1 SLOAD PUSH20 0xFFFFFFFFFFFFFFFFFFFFFFFFFFFFFFFFFFFFFFFF DUP6 DUP2 AND SWAP2 AND EQ PUSH2 0xFC5 JUMPI PUSH1 0x40 MLOAD PUSH32 0x8C379A000000000000000000000000000000000000000000000000000000000 DUP2 MSTORE PUSH1 0x20 PUSH1 0x4 DUP3 ADD MSTORE PUSH1 0x25 PUSH1 0x24 DUP3 ADD MSTORE PUSH32 0x6974656D206973206E6F74207468652073616D6520636F6E7472616374206164 PUSH1 0x44 DUP3 ADD MSTORE PUSH32 0x6472657373000000000000000000000000000000000000000000000000000000 PUSH1 0x64 DUP3 ADD MSTORE PUSH1 0x84 ADD PUSH2 0x6BA JUMP JUMPDEST PUSH1 0x4 DUP2 ADD DUP1 SLOAD PUSH32 0xFFFFFFFFFFFFFFFFFFFFFF000000000000000000000000000000000000000000 AND PUSH20 0xFFFFFFFFFFFFFFFFFFFFFFFFFFFFFFFFFFFFFFFF DUP5 AND SWAP1 DUP2 OR SWAP1 SWAP2 SSTORE PUSH1 0x1 DUP3 ADD SLOAD PUSH1 0x2 DUP4 ADD SLOAD PUSH1 0x40 DUP1 MLOAD SWAP4 DUP5 MSTORE PUSH1 0x20 DUP5 ADD SWAP3 SWAP1 SWAP3 MSTORE SWAP1 DUP3 ADD MSTORE PUSH32 0xFC2E01EC8C4C53E02EE1FA8816C1692687966E0DAEF195BE5B64C88D8E58E3EE SWAP1 PUSH1 0x60 ADD PUSH1 0x40 MLOAD DUP1 SWAP2 SUB SWAP1 LOG1 POP PUSH2 0x105E PUSH1 0x1 DUP1 SSTORE JUMP JUMPDEST POP POP POP JUMP JUMPDEST PUSH0 DUP2 DUP2 MSTORE PUSH1 0x9 PUSH1 0x20 MSTORE PUSH1 0x40 SWAP1 KECCAK256 PUSH1 0x4 ADD SLOAD DUP3 SWAP1 DUP3 SWAP1 PUSH20 0xFFFFFFFFFFFFFFFFFFFFFFFFFFFFFFFFFFFFFFFF AND CALLER EQ PUSH2 0x1098 JUMPI PUSH0 DUP1 REVERT JUMPDEST PUSH0 DUP2 DUP2 MSTORE PUSH1 0x9 PUSH1 0x20 MSTORE PUSH1 0x40 SWAP1 KECCAK256 SLOAD PUSH20 0xFFFFFFFFFFFFFFFFFFFFFFFFFFFFFFFFFFFFFFFF DUP4 DUP2 AND SWAP2 AND EQ PUSH2 0x10C9 JUMPI PUSH0 DUP1 REVERT JUMPDEST PUSH0 DUP4 DUP2 MSTORE PUSH1 0x9 PUSH1 0x20 MSTORE PUSH1 0x40 SWAP1 KECCAK256 PUSH1 0x4 DUP2 ADD SLOAD PUSH20 0xFFFFFFFFFFFFFFFFFFFFFFFFFFFFFFFFFFFFFFFF AND CALLER EQ PUSH2 0x1159 JUMPI PUSH1 0x40 MLOAD PUSH32 0x8C379A000000000000000000000000000000000000000000000000000000000 DUP2 MSTORE PUSH1 0x20 PUSH1 0x4 DUP3 ADD MSTORE PUSH1 0x11 PUSH1 0x24 DUP3 ADD MSTORE PUSH32 0x6973206E6F74207468652073656C6C6572000000000000000000000000000000 PUSH1 0x44 DUP3 ADD MSTORE PUSH1 0x64 ADD PUSH2 0x6BA JUMP JUMPDEST PUSH1 0x4 DUP2 ADD SLOAD PUSH21 0x10000000000000000000000000000000000000000 SWAP1 DIV PUSH1 0xFF AND ISZERO ISZERO PUSH1 0x1 EQ PUSH2 0x11E4 JUMPI PUSH1 0x40 MLOAD PUSH32 0x8C379A000000000000000000000000000000000000000000000000000000000 DUP2 MSTORE PUSH1 0x20 PUSH1 0x4 DUP3 ADD MSTORE PUSH1 0xF PUSH1 0x24 DUP3 ADD MSTORE PUSH32 0x6973206E6F74206C697374656E65640000000000000000000000000000000000 PUSH1 0x44 DUP3 ADD MSTORE PUSH1 0x64 ADD PUSH2 0x6BA JUMP JUMPDEST PUSH1 0x1 DUP2 ADD SLOAD PUSH1 0x40 MLOAD PUSH32 0x23B872DD00000000000000000000000000000000000000000000000000000000 DUP2 MSTORE ADDRESS PUSH1 0x4 DUP3 ADD MSTORE CALLER PUSH1 0x24 DUP3 ADD MSTORE PUSH1 0x44 DUP2 ADD SWAP2 SWAP1 SWAP2 MSTORE PUSH20 0xFFFFFFFFFFFFFFFFFFFFFFFFFFFFFFFFFFFFFFFF DUP7 AND SWAP1 PUSH4 0x23B872DD SWAP1 PUSH1 0x64 ADD PUSH0 PUSH1 0x40 MLOAD DUP1 DUP4 SUB DUP2 PUSH0 DUP8 DUP1 EXTCODESIZE ISZERO DUP1 ISZERO PUSH2 0x125B JUMPI PUSH0 DUP1 REVERT JUMPDEST POP GAS CALL ISZERO DUP1 ISZERO PUSH2 0x126D JUMPI RETURNDATASIZE PUSH0 DUP1 RETURNDATACOPY RETURNDATASIZE PUSH0 REVERT JUMPDEST POP POP POP POP PUSH1 0x4 ADD DUP1 SLOAD PUSH32 0xFFFFFFFFFFFFFFFFFFFFFF00FFFFFFFFFFFFFFFFFFFFFFFFFFFFFFFFFFFFFFFF AND SWAP1 SSTORE POP POP POP POP JUMP JUMPDEST PUSH2 0x12A8 PUSH2 0x1D3F JUMP JUMPDEST PUSH1 0x5 SSTORE JUMP JUMPDEST PUSH2 0x12B5 PUSH2 0x1E0D JUMP JUMPDEST PUSH2 0x12BD PUSH2 0x1E91 JUMP JUMPDEST PUSH0 DUP2 DUP2 MSTORE PUSH1 0x9 PUSH1 0x20 MSTORE PUSH1 0x40 SWAP1 KECCAK256 DUP2 ISZERO DUP1 ISZERO SWAP1 PUSH2 0x12DB JUMPI POP PUSH1 0x4 SLOAD DUP3 GT ISZERO JUMPDEST PUSH2 0x1341 JUMPI PUSH1 0x40 MLOAD PUSH32 0x8C379A000000000000000000000000000000000000000000000000000000000 DUP2 MSTORE PUSH1 0x20 PUSH1 0x4 DUP3 ADD MSTORE PUSH1 0x12 PUSH1 0x24 DUP3 ADD MSTORE PUSH32 0x6974656D20646F65736E27742065786973740000000000000000000000000000 PUSH1 0x44 DUP3 ADD MSTORE PUSH1 0x64 ADD PUSH2 0x6BA JUMP JUMPDEST PUSH1 0x4 DUP2 ADD SLOAD PUSH21 0x10000000000000000000000000000000000000000 SWAP1 DIV PUSH1 0xFF AND ISZERO ISZERO PUSH0 SUB PUSH2 0x13CB JUMPI PUSH1 0x40 MLOAD PUSH32 0x8C379A000000000000000000000000000000000000000000000000000000000 DUP2 MSTORE PUSH1 0x20 PUSH1 0x4 DUP3 ADD MSTORE PUSH1 0x14 PUSH1 0x24 DUP3 ADD MSTORE PUSH32 0x6974656D206973206E6F7420666F722073656C6C000000000000000000000000 PUSH1 0x44 DUP3 ADD MSTORE PUSH1 0x64 ADD PUSH2 0x6BA JUMP JUMPDEST PUSH1 0x4 DUP2 ADD SLOAD CALLER PUSH20 0xFFFFFFFFFFFFFFFFFFFFFFFFFFFFFFFFFFFFFFFF SWAP1 SWAP2 AND SUB PUSH2 0x1450 JUMPI PUSH1 0x40 MLOAD PUSH32 0x8C379A000000000000000000000000000000000000000000000000000000000 DUP2 MSTORE PUSH1 0x20 PUSH1 0x4 DUP3 ADD MSTORE PUSH1 0x1B PUSH1 0x24 DUP3 ADD MSTORE PUSH32 0x596F752063616E6E6F742062757920796F7572206F776E206E66740000000000 PUSH1 0x44 DUP3 ADD MSTORE PUSH1 0x64 ADD PUSH2 0x6BA JUMP JUMPDEST DUP1 SLOAD PUSH20 0xFFFFFFFFFFFFFFFFFFFFFFFFFFFFFFFFFFFFFFFF DUP5 DUP2 AND SWAP2 AND EQ PUSH2 0x14F9 JUMPI PUSH1 0x40 MLOAD PUSH32 0x8C379A000000000000000000000000000000000000000000000000000000000 DUP2 MSTORE PUSH1 0x20 PUSH1 0x4 DUP3 ADD MSTORE PUSH1 0x25 PUSH1 0x24 DUP3 ADD MSTORE PUSH32 0x6974656D206973206E6F74207468652073616D6520636F6E7472616374206164 PUSH1 0x44 DUP3 ADD MSTORE PUSH32 0x6472657373000000000000000000000000000000000000000000000000000000 PUSH1 0x64 DUP3 ADD MSTORE PUSH1 0x84 ADD PUSH2 0x6BA JUMP JUMPDEST DUP1 PUSH1 0x2 ADD SLOAD CALLVALUE LT ISZERO PUSH2 0x158D JUMPI PUSH1 0x40 MLOAD PUSH32 0x8C379A000000000000000000000000000000000000000000000000000000000 DUP2 MSTORE PUSH1 0x20 PUSH1 0x4 DUP3 ADD MSTORE PUSH1 0x27 PUSH1 0x24 DUP3 ADD MSTORE PUSH32 0x6E6F7420656E6F7567682062616C616E636520666F722074686973207472616E PUSH1 0x44 DUP3 ADD MSTORE PUSH32 0x73616374696F6E00000000000000000000000000000000000000000000000000 PUSH1 0x64 DUP3 ADD MSTORE PUSH1 0x84 ADD PUSH2 0x6BA JUMP JUMPDEST PUSH1 0x2 DUP2 ADD SLOAD PUSH1 0x8 DUP2 SWAP1 SSTORE PUSH1 0x5 SLOAD PUSH2 0x15AC SWAP2 PUSH2 0x2710 SWAP2 PUSH2 0x7F1 SWAP2 SWAP1 PUSH2 0x1F04 JUMP JUMPDEST PUSH1 0x6 DUP2 SWAP1 SSTORE PUSH1 0x8 SLOAD PUSH2 0x15BD SWAP2 PUSH2 0x1F21 JUMP JUMPDEST PUSH1 0x7 DUP2 SWAP1 SSTORE PUSH1 0x3 DUP3 ADD SLOAD PUSH1 0x2 DUP1 SLOAD PUSH32 0xFFFFFFFFFFFFFFFFFFFFFFFF0000000000000000000000000000000000000000 AND PUSH20 0xFFFFFFFFFFFFFFFFFFFFFFFFFFFFFFFFFFFFFFFF SWAP3 DUP4 AND SWAP1 DUP2 OR SWAP1 SWAP2 SSTORE PUSH1 0x4 DUP1 DUP6 ADD SLOAD PUSH1 0x40 MLOAD PUSH32 0xA9059CBB00000000000000000000000000000000000000000000000000000000 DUP2 MSTORE SWAP4 AND SWAP1 DUP4 ADD MSTORE PUSH1 0x24 DUP3 ADD SWAP3 SWAP1 SWAP3 MSTORE PUSH4 0xA9059CBB SWAP1 PUSH1 0x44 ADD PUSH1 0x20 PUSH1 0x40 MLOAD DUP1 DUP4 SUB DUP2 PUSH0 DUP8 GAS CALL ISZERO DUP1 ISZERO PUSH2 0x166A JUMPI RETURNDATASIZE PUSH0 DUP1 RETURNDATACOPY RETURNDATASIZE PUSH0 REVERT JUMPDEST POP POP POP POP PUSH1 0x40 MLOAD RETURNDATASIZE PUSH1 0x1F NOT PUSH1 0x1F DUP3 ADD AND DUP3 ADD DUP1 PUSH1 0x40 MSTORE POP DUP2 ADD SWAP1 PUSH2 0x168E SWAP2 SWAP1 PUSH2 0x21C2 JUMP JUMPDEST POP PUSH1 0x1 DUP2 ADD SLOAD PUSH1 0x40 MLOAD PUSH32 0x23B872DD00000000000000000000000000000000000000000000000000000000 DUP2 MSTORE ADDRESS PUSH1 0x4 DUP3 ADD MSTORE CALLER PUSH1 0x24 DUP3 ADD MSTORE PUSH1 0x44 DUP2 ADD SWAP2 SWAP1 SWAP2 MSTORE PUSH20 0xFFFFFFFFFFFFFFFFFFFFFFFFFFFFFFFFFFFFFFFF DUP5 AND SWAP1 PUSH4 0x23B872DD SWAP1 PUSH1 0x64 ADD PUSH0 PUSH1 0x40 MLOAD DUP1 DUP4 SUB DUP2 PUSH0 DUP8 DUP1 EXTCODESIZE ISZERO DUP1 ISZERO PUSH2 0x1706 JUMPI PUSH0 DUP1 REVERT JUMPDEST POP GAS CALL ISZERO DUP1 ISZERO PUSH2 0x1718 JUMPI RETURNDATASIZE PUSH0 DUP1 RETURNDATACOPY RETURNDATASIZE PUSH0 REVERT JUMPDEST POP POP POP POP PUSH1 0x4 DUP2 ADD DUP1 SLOAD PUSH32 0xFFFFFFFFFFFFFFFFFFFFFF000000000000000000000000000000000000000000 AND CALLER PUSH32 0xFFFFFFFFFFFFFFFFFFFFFF00FFFFFFFFFFFFFFFFFFFFFFFFFFFFFFFFFFFFFFFF DUP2 AND SWAP2 SWAP1 SWAP2 OR SWAP1 SWAP2 SSTORE PUSH1 0x1 DUP3 ADD SLOAD PUSH1 0x7 SLOAD PUSH1 0x40 DUP1 MLOAD SWAP4 DUP5 MSTORE PUSH1 0x20 DUP5 ADD SWAP3 SWAP1 SWAP3 MSTORE SWAP1 DUP3 ADD MSTORE PUSH32 0xC0790EB4899023169BE51DD7074A99A15959464F9A0E6B19767D8D61539B8726 SWAP1 PUSH1 0x60 ADD PUSH1 0x40 MLOAD DUP1 SWAP2 SUB SWAP1 LOG1 POP PUSH2 0xCEA PUSH1 0x1 DUP1 SSTORE JUMP JUMPDEST PUSH0 PUSH2 0x17CB PUSH1 0x4 SLOAD SWAP1 JUMP JUMPDEST SWAP1 POP SWAP1 JUMP JUMPDEST PUSH0 DUP1 PUSH1 0x1 JUMPDEST PUSH1 0x4 SLOAD DUP2 GT PUSH2 0x1876 JUMPI PUSH0 DUP2 DUP2 MSTORE PUSH1 0x9 PUSH1 0x20 MSTORE PUSH1 0x40 SWAP1 KECCAK256 SLOAD PUSH20 0xFFFFFFFFFFFFFFFFFFFFFFFFFFFFFFFFFFFFFFFF DUP7 DUP2 AND SWAP2 AND EQ DUP1 ISZERO PUSH2 0x1822 JUMPI POP PUSH0 DUP2 DUP2 MSTORE PUSH1 0x9 PUSH1 0x20 MSTORE PUSH1 0x40 SWAP1 KECCAK256 PUSH1 0x1 ADD SLOAD DUP5 EQ JUMPDEST DUP1 ISZERO PUSH2 0x1856 JUMPI POP PUSH0 DUP2 DUP2 MSTORE PUSH1 0x9 PUSH1 0x20 MSTORE PUSH1 0x40 SWAP1 KECCAK256 PUSH1 0x4 ADD SLOAD PUSH21 0x10000000000000000000000000000000000000000 SWAP1 DIV PUSH1 0xFF AND JUMPDEST ISZERO PUSH2 0x1864 JUMPI PUSH1 0x1 SWAP2 POP PUSH2 0x1876 JUMP JUMPDEST DUP1 PUSH2 0x186E DUP2 PUSH2 0x2225 JUMP JUMPDEST SWAP2 POP POP PUSH2 0x17D5 JUMP JUMPDEST DUP2 PUSH2 0x1885 JUMPI PUSH0 SWAP3 POP POP POP PUSH2 0xD6A JUMP JUMPDEST SWAP5 SWAP4 POP POP POP POP JUMP JUMPDEST PUSH1 0x40 MLOAD PUSH32 0x6352211E00000000000000000000000000000000000000000000000000000000 DUP2 MSTORE PUSH1 0x4 DUP2 ADD DUP5 SWAP1 MSTORE CALLER SWAP1 PUSH20 0xFFFFFFFFFFFFFFFFFFFFFFFFFFFFFFFFFFFFFFFF DUP7 AND SWAP1 PUSH4 0x6352211E SWAP1 PUSH1 0x24 ADD PUSH1 0x20 PUSH1 0x40 MLOAD DUP1 DUP4 SUB DUP2 DUP7 GAS STATICCALL ISZERO DUP1 ISZERO PUSH2 0x18F8 JUMPI RETURNDATASIZE PUSH0 DUP1 RETURNDATACOPY RETURNDATASIZE PUSH0 REVERT JUMPDEST POP POP POP POP PUSH1 0x40 MLOAD RETURNDATASIZE PUSH1 0x1F NOT PUSH1 0x1F DUP3 ADD AND DUP3 ADD DUP1 PUSH1 0x40 MSTORE POP DUP2 ADD SWAP1 PUSH2 0x191C SWAP2 SWAP1 PUSH2 0x225C JUMP JUMPDEST PUSH20 0xFFFFFFFFFFFFFFFFFFFFFFFFFFFFFFFFFFFFFFFF AND EQ PUSH2 0x1999 JUMPI PUSH1 0x40 MLOAD PUSH32 0x8C379A000000000000000000000000000000000000000000000000000000000 DUP2 MSTORE PUSH1 0x20 PUSH1 0x4 DUP3 ADD MSTORE PUSH1 0x15 PUSH1 0x24 DUP3 ADD MSTORE PUSH32 0x596F7520617265206E6F7420746865206F776E65720000000000000000000000 PUSH1 0x44 DUP3 ADD MSTORE PUSH1 0x64 ADD PUSH2 0x6BA JUMP JUMPDEST PUSH0 DUP3 GT PUSH2 0x1A28 JUMPI PUSH1 0x40 MLOAD PUSH32 0x8C379A000000000000000000000000000000000000000000000000000000000 DUP2 MSTORE PUSH1 0x20 PUSH1 0x4 DUP3 ADD MSTORE PUSH1 0x27 PUSH1 0x24 DUP3 ADD MSTORE PUSH32 0x4E46544D61726B65743A207072696365206D7573742062652067726561746572 PUSH1 0x44 DUP3 ADD MSTORE PUSH32 0x207468616E203000000000000000000000000000000000000000000000000000 PUSH1 0x64 DUP3 ADD MSTORE PUSH1 0x84 ADD PUSH2 0x6BA JUMP JUMPDEST PUSH2 0x1A36 PUSH1 0x4 DUP1 SLOAD PUSH1 0x1 ADD SWAP1 SSTORE JUMP JUMPDEST PUSH1 0x40 MLOAD DUP1 PUSH1 0xC0 ADD PUSH1 0x40 MSTORE DUP1 DUP6 PUSH20 0xFFFFFFFFFFFFFFFFFFFFFFFFFFFFFFFFFFFFFFFF AND DUP2 MSTORE PUSH1 0x20 ADD DUP5 DUP2 MSTORE PUSH1 0x20 ADD DUP4 DUP2 MSTORE PUSH1 0x20 ADD DUP3 PUSH20 0xFFFFFFFFFFFFFFFFFFFFFFFFFFFFFFFFFFFFFFFF AND DUP2 MSTORE PUSH1 0x20 ADD CALLER PUSH20 0xFFFFFFFFFFFFFFFFFFFFFFFFFFFFFFFFFFFFFFFF AND DUP2 MSTORE PUSH1 0x20 ADD PUSH0 ISZERO ISZERO DUP2 MSTORE POP PUSH1 0x9 PUSH0 PUSH2 0x1AB3 PUSH1 0x4 SLOAD SWAP1 JUMP JUMPDEST DUP2 MSTORE PUSH1 0x20 DUP1 DUP3 ADD SWAP3 SWAP1 SWAP3 MSTORE PUSH1 0x40 SWAP1 DUP2 ADD PUSH0 SWAP1 DUP2 KECCAK256 DUP5 MLOAD DUP2 SLOAD PUSH20 0xFFFFFFFFFFFFFFFFFFFFFFFFFFFFFFFFFFFFFFFF SWAP2 DUP3 AND PUSH32 0xFFFFFFFFFFFFFFFFFFFFFFFF0000000000000000000000000000000000000000 SWAP2 DUP3 AND OR DUP4 SSTORE SWAP5 DUP7 ADD MLOAD PUSH1 0x1 DUP4 ADD SSTORE SWAP3 DUP6 ADD MLOAD PUSH1 0x2 DUP3 ADD SSTORE PUSH1 0x60 DUP6 ADD MLOAD PUSH1 0x3 DUP3 ADD DUP1 SLOAD SWAP2 DUP6 AND SWAP2 SWAP1 SWAP6 AND OR SWAP1 SWAP4 SSTORE PUSH1 0x80 DUP5 ADD MLOAD PUSH1 0x4 SWAP4 DUP5 ADD DUP1 SLOAD PUSH1 0xA0 SWAP1 SWAP7 ADD MLOAD ISZERO ISZERO PUSH21 0x10000000000000000000000000000000000000000 MUL PUSH32 0xFFFFFFFFFFFFFFFFFFFFFF000000000000000000000000000000000000000000 SWAP1 SWAP7 AND SWAP2 SWAP1 SWAP4 AND OR SWAP4 SWAP1 SWAP4 OR SWAP1 SSTORE PUSH1 0x9 SWAP1 DUP3 SWAP1 PUSH2 0x1B99 SWAP1 SLOAD SWAP1 JUMP JUMPDEST DUP2 MSTORE PUSH1 0x20 DUP2 ADD SWAP2 SWAP1 SWAP2 MSTORE PUSH1 0x40 SWAP1 DUP2 ADD PUSH0 KECCAK256 SWAP1 MLOAD PUSH32 0x23B872DD00000000000000000000000000000000000000000000000000000000 DUP2 MSTORE CALLER PUSH1 0x4 DUP3 ADD MSTORE ADDRESS PUSH1 0x24 DUP3 ADD MSTORE PUSH1 0x44 DUP2 ADD DUP7 SWAP1 MSTORE SWAP1 SWAP2 POP PUSH20 0xFFFFFFFFFFFFFFFFFFFFFFFFFFFFFFFFFFFFFFFF DUP7 AND SWAP1 PUSH4 0x23B872DD SWAP1 PUSH1 0x64 ADD PUSH0 PUSH1 0x40 MLOAD DUP1 DUP4 SUB DUP2 PUSH0 DUP8 DUP1 EXTCODESIZE ISZERO DUP1 ISZERO PUSH2 0x1C1D JUMPI PUSH0 DUP1 REVERT JUMPDEST POP GAS CALL ISZERO DUP1 ISZERO PUSH2 0x1C2F JUMPI RETURNDATASIZE PUSH0 DUP1 RETURNDATACOPY RETURNDATASIZE PUSH0 REVERT JUMPDEST POP POP POP PUSH1 0x4 DUP1 DUP4 ADD DUP1 SLOAD PUSH32 0xFFFFFFFFFFFFFFFFFFFFFF00FFFFFFFFFFFFFFFFFFFFFFFFFFFFFFFFFFFFFFFF AND PUSH21 0x10000000000000000000000000000000000000000 OR SWAP1 SSTORE PUSH32 0x21149A5778DDC1AFCA837B00FD70C0FC0A6D1D25D1BD15BFF4A84BAB1EEB9A92 SWAP2 POP CALLER SWAP1 DUP7 SWAP1 PUSH2 0x1CA3 SWAP1 SLOAD SWAP1 JUMP JUMPDEST PUSH1 0x40 DUP1 MLOAD PUSH20 0xFFFFFFFFFFFFFFFFFFFFFFFFFFFFFFFFFFFFFFFF SWAP1 SWAP5 AND DUP5 MSTORE PUSH1 0x20 DUP5 ADD SWAP3 SWAP1 SWAP3 MSTORE SWAP1 DUP3 ADD MSTORE PUSH1 0x60 ADD PUSH1 0x40 MLOAD DUP1 SWAP2 SUB SWAP1 LOG1 POP POP POP POP POP JUMP JUMPDEST PUSH2 0x1CE7 PUSH2 0x1D3F JUMP JUMPDEST PUSH20 0xFFFFFFFFFFFFFFFFFFFFFFFFFFFFFFFFFFFFFFFF DUP2 AND PUSH2 0x1D36 JUMPI PUSH1 0x40 MLOAD PUSH32 0x1E4FBDF700000000000000000000000000000000000000000000000000000000 DUP2 MSTORE PUSH0 PUSH1 0x4 DUP3 ADD MSTORE PUSH1 0x24 ADD PUSH2 0x6BA JUMP JUMPDEST PUSH2 0x9F2 DUP2 PUSH2 0x1F9A JUMP JUMPDEST PUSH0 SLOAD PUSH20 0xFFFFFFFFFFFFFFFFFFFFFFFFFFFFFFFFFFFFFFFF AND CALLER EQ PUSH2 0x628 JUMPI PUSH1 0x40 MLOAD PUSH32 0x118CDAA700000000000000000000000000000000000000000000000000000000 DUP2 MSTORE CALLER PUSH1 0x4 DUP3 ADD MSTORE PUSH1 0x24 ADD PUSH2 0x6BA JUMP JUMPDEST PUSH2 0x1D99 PUSH2 0x200E JUMP JUMPDEST PUSH0 DUP1 SLOAD PUSH32 0xFFFFFFFFFFFFFFFFFFFFFF00FFFFFFFFFFFFFFFFFFFFFFFFFFFFFFFFFFFFFFFF AND SWAP1 SSTORE PUSH32 0x5DB9EE0A495BF2E6FF9C91A7834C1BA4FDD244A5E8AA4E537BD38AEAE4B073AA CALLER JUMPDEST PUSH1 0x40 MLOAD PUSH20 0xFFFFFFFFFFFFFFFFFFFFFFFFFFFFFFFFFFFFFFFF SWAP1 SWAP2 AND DUP2 MSTORE PUSH1 0x20 ADD PUSH1 0x40 MLOAD DUP1 SWAP2 SUB SWAP1 LOG1 JUMP JUMPDEST PUSH0 SLOAD PUSH21 0x10000000000000000000000000000000000000000 SWAP1 DIV PUSH1 0xFF AND ISZERO PUSH2 0x628 JUMPI PUSH1 0x40 MLOAD PUSH32 0x8C379A000000000000000000000000000000000000000000000000000000000 DUP2 MSTORE PUSH1 0x20 PUSH1 0x4 DUP3 ADD MSTORE PUSH1 0x10 PUSH1 0x24 DUP3 ADD MSTORE PUSH32 0x5061757361626C653A2070617573656400000000000000000000000000000000 PUSH1 0x44 DUP3 ADD MSTORE PUSH1 0x64 ADD PUSH2 0x6BA JUMP JUMPDEST PUSH1 0x2 PUSH1 0x1 SLOAD SUB PUSH2 0x1EFD JUMPI PUSH1 0x40 MLOAD PUSH32 0x8C379A000000000000000000000000000000000000000000000000000000000 DUP2 MSTORE PUSH1 0x20 PUSH1 0x4 DUP3 ADD MSTORE PUSH1 0x1F PUSH1 0x24 DUP3 ADD MSTORE PUSH32 0x5265656E7472616E637947756172643A207265656E7472616E742063616C6C00 PUSH1 0x44 DUP3 ADD MSTORE PUSH1 0x64 ADD PUSH2 0x6BA JUMP JUMPDEST PUSH1 0x2 PUSH1 0x1 SSTORE JUMP JUMPDEST PUSH0 PUSH2 0x1F0F DUP3 DUP5 PUSH2 0x2277 JUMP JUMPDEST SWAP4 SWAP3 POP POP POP JUMP JUMPDEST PUSH0 PUSH2 0x1F0F DUP3 DUP5 PUSH2 0x228E JUMP JUMPDEST PUSH0 PUSH2 0x1F0F DUP3 DUP5 PUSH2 0x22C6 JUMP JUMPDEST PUSH2 0x1F34 PUSH2 0x1E0D JUMP JUMPDEST PUSH0 DUP1 SLOAD PUSH32 0xFFFFFFFFFFFFFFFFFFFFFF00FFFFFFFFFFFFFFFFFFFFFFFFFFFFFFFFFFFFFFFF AND PUSH21 0x10000000000000000000000000000000000000000 OR SWAP1 SSTORE PUSH32 0x62E78CEA01BEE320CD4E420270B5EA74000D11B0C9F74754EBDBFC544B05A258 PUSH2 0x1DE3 CALLER SWAP1 JUMP JUMPDEST PUSH0 DUP1 SLOAD PUSH20 0xFFFFFFFFFFFFFFFFFFFFFFFFFFFFFFFFFFFFFFFF DUP4 DUP2 AND PUSH32 0xFFFFFFFFFFFFFFFFFFFFFFFF0000000000000000000000000000000000000000 DUP4 AND DUP2 OR DUP5 SSTORE PUSH1 0x40 MLOAD SWAP2 SWAP1 SWAP3 AND SWAP3 DUP4 SWAP2 PUSH32 0x8BE0079C531659141344CD1FD0A4F28419497F9722A3DAAFE3B4186F6B6457E0 SWAP2 SWAP1 LOG3 POP POP JUMP JUMPDEST PUSH0 SLOAD PUSH21 0x10000000000000000000000000000000000000000 SWAP1 DIV PUSH1 0xFF AND PUSH2 0x628 JUMPI PUSH1 0x40 MLOAD PUSH32 0x8C379A000000000000000000000000000000000000000000000000000000000 DUP2 MSTORE PUSH1 0x20 PUSH1 0x4 DUP3 ADD MSTORE PUSH1 0x14 PUSH1 0x24 DUP3 ADD MSTORE PUSH32 0x5061757361626C653A206E6F7420706175736564000000000000000000000000 PUSH1 0x44 DUP3 ADD MSTORE PUSH1 0x64 ADD PUSH2 0x6BA JUMP JUMPDEST PUSH0 PUSH1 0x20 DUP3 DUP5 SUB SLT ISZERO PUSH2 0x20A1 JUMPI PUSH0 DUP1 REVERT JUMPDEST POP CALLDATALOAD SWAP2 SWAP1 POP JUMP JUMPDEST PUSH20 0xFFFFFFFFFFFFFFFFFFFFFFFFFFFFFFFFFFFFFFFF DUP2 AND DUP2 EQ PUSH2 0x9F2 JUMPI PUSH0 DUP1 REVERT JUMPDEST PUSH0 DUP1 PUSH1 0x40 DUP4 DUP6 SUB SLT ISZERO PUSH2 0x20DA JUMPI PUSH0 DUP1 REVERT JUMPDEST DUP3 CALLDATALOAD SWAP2 POP PUSH1 0x20 DUP4 ADD CALLDATALOAD PUSH2 0x20EC DUP2 PUSH2 0x20A8 JUMP JUMPDEST DUP1 SWAP2 POP POP SWAP3 POP SWAP3 SWAP1 POP JUMP JUMPDEST PUSH0 DUP1 PUSH1 0x40 DUP4 DUP6 SUB SLT ISZERO PUSH2 0x2108 JUMPI PUSH0 DUP1 REVERT JUMPDEST DUP3 CALLDATALOAD PUSH2 0x2113 DUP2 PUSH2 0x20A8 JUMP JUMPDEST SWAP5 PUSH1 0x20 SWAP4 SWAP1 SWAP4 ADD CALLDATALOAD SWAP4 POP POP POP JUMP JUMPDEST PUSH0 DUP1 PUSH0 PUSH1 0x60 DUP5 DUP7 SUB SLT ISZERO PUSH2 0x2133 JUMPI PUSH0 DUP1 REVERT JUMPDEST DUP4 CALLDATALOAD PUSH2 0x213E DUP2 PUSH2 0x20A8 JUMP JUMPDEST SWAP3 POP PUSH1 0x20 DUP5 ADD CALLDATALOAD SWAP2 POP PUSH1 0x40 DUP5 ADD CALLDATALOAD PUSH2 0x2155 DUP2 PUSH2 0x20A8 JUMP JUMPDEST DUP1 SWAP2 POP POP SWAP3 POP SWAP3 POP SWAP3 JUMP JUMPDEST PUSH0 DUP1 PUSH0 DUP1 PUSH1 0x80 DUP6 DUP8 SUB SLT ISZERO PUSH2 0x2173 JUMPI PUSH0 DUP1 REVERT JUMPDEST DUP5 CALLDATALOAD PUSH2 0x217E DUP2 PUSH2 0x20A8 JUMP JUMPDEST SWAP4 POP PUSH1 0x20 DUP6 ADD CALLDATALOAD SWAP3 POP PUSH1 0x40 DUP6 ADD CALLDATALOAD SWAP2 POP PUSH1 0x60 DUP6 ADD CALLDATALOAD PUSH2 0x219C DUP2 PUSH2 0x20A8 JUMP JUMPDEST SWAP4 SWAP7 SWAP3 SWAP6 POP SWAP1 SWAP4 POP POP JUMP JUMPDEST PUSH0 PUSH1 0x20 DUP3 DUP5 SUB SLT ISZERO PUSH2 0x21B7 JUMPI PUSH0 DUP1 REVERT JUMPDEST DUP2 CALLDATALOAD PUSH2 0x1F0F DUP2 PUSH2 0x20A8 JUMP JUMPDEST PUSH0 PUSH1 0x20 DUP3 DUP5 SUB SLT ISZERO PUSH2 0x21D2 JUMPI PUSH0 DUP1 REVERT JUMPDEST DUP2 MLOAD DUP1 ISZERO ISZERO DUP2 EQ PUSH2 0x1F0F JUMPI PUSH0 DUP1 REVERT JUMPDEST PUSH0 PUSH1 0x20 DUP3 DUP5 SUB SLT ISZERO PUSH2 0x21F1 JUMPI PUSH0 DUP1 REVERT JUMPDEST POP MLOAD SWAP2 SWAP1 POP JUMP JUMPDEST PUSH32 0x4E487B7100000000000000000000000000000000000000000000000000000000 PUSH0 MSTORE PUSH1 0x11 PUSH1 0x4 MSTORE PUSH1 0x24 PUSH0 REVERT JUMPDEST PUSH0 PUSH32 0xFFFFFFFFFFFFFFFFFFFFFFFFFFFFFFFFFFFFFFFFFFFFFFFFFFFFFFFFFFFFFFFF DUP3 SUB PUSH2 0x2255 JUMPI PUSH2 0x2255 PUSH2 0x21F8 JUMP JUMPDEST POP PUSH1 0x1 ADD SWAP1 JUMP JUMPDEST PUSH0 PUSH1 0x20 DUP3 DUP5 SUB SLT ISZERO PUSH2 0x226C JUMPI PUSH0 DUP1 REVERT JUMPDEST DUP2 MLOAD PUSH2 0x1F0F DUP2 PUSH2 0x20A8 JUMP JUMPDEST DUP1 DUP3 MUL DUP2 ISZERO DUP3 DUP3 DIV DUP5 EQ OR PUSH2 0xD6A JUMPI PUSH2 0xD6A PUSH2 0x21F8 JUMP JUMPDEST PUSH0 DUP3 PUSH2 0x22C1 JUMPI PUSH32 0x4E487B7100000000000000000000000000000000000000000000000000000000 PUSH0 MSTORE PUSH1 0x12 PUSH1 0x4 MSTORE PUSH1 0x24 PUSH0 REVERT JUMPDEST POP DIV SWAP1 JUMP JUMPDEST DUP2 DUP2 SUB DUP2 DUP2 GT ISZERO PUSH2 0xD6A JUMPI PUSH2 0xD6A PUSH2 0x21F8 JUMP INVALID LOG2 PUSH5 0x6970667358 0x22 SLT KECCAK256 0xF8 DUP16 CALLDATALOAD RETURN ISZERO 0x4E 0xAE 0x5D SWAP7 PUSH3 0x7D5A9 0x2C SWAP10 SLOAD DUP14 MUL 0xEC 0x4A DUP13 SDIV PUSH8 0x6B45199A3953DFA3 PUSH0 PUSH5 0x736F6C6343 STOP ADDMOD AND STOP CALLER "
		},
		"gasEstimates": {
			"creation": {
				"codeDepositCost": "1795000",
				"executionCost": "infinite",
				"totalCost": "infinite"
			},
			"external": {
				"ERC20()": "2357",
				"ERCNFT()": "2378",
				"buyNFT(address,uint256)": "infinite",
				"cancel(address,uint256)": "infinite",
				"getAllIdListed(address,uint256)": "infinite",
				"getComissionPercentage()": "2326",
				"getIdListed(address,uint256)": "infinite",
				"getListinglength()": "2417",
				"getNFTListing(uint256)": "11444",
				"listNFT(address,uint256,uint256,address)": "infinite",
				"listings(uint256)": "11112",
				"owner()": "2383",
				"pauseMarketplace()": "infinite",
				"paused()": "2391",
				"renounceOwnership()": "infinite",
				"transferNFT(uint256)": "infinite",
				"transferOrWithdraw(uint256,address)": "infinite",
				"transferOwnership(address)": "infinite",
				"unpauseMarketplace()": "infinite",
				"updateComissionPercentage(uint256)": "24518",
				"updateNFT(address,uint256,address)": "infinite"
			}
		},
		"methodIdentifiers": {
			"ERC20()": "cc4aa204",
			"ERCNFT()": "df706cbc",
			"buyNFT(address,uint256)": "a82ba76f",
			"cancel(address,uint256)": "98590ef9",
			"getAllIdListed(address,uint256)": "8699fdf4",
			"getComissionPercentage()": "65a19c20",
			"getIdListed(address,uint256)": "cf02976f",
			"getListinglength()": "c85d5262",
			"getNFTListing(uint256)": "0ea59c4b",
			"listNFT(address,uint256,uint256,address)": "d68cdc52",
			"listings(uint256)": "de74e57b",
			"owner()": "8da5cb5b",
			"pauseMarketplace()": "3ec62279",
			"paused()": "5c975abb",
			"renounceOwnership()": "715018a6",
			"transferNFT(uint256)": "249e10c5",
			"transferOrWithdraw(uint256,address)": "6ee4c120",
			"transferOwnership(address)": "f2fde38b",
			"unpauseMarketplace()": "21f67fbb",
			"updateComissionPercentage(uint256)": "9cefe029",
			"updateNFT(address,uint256,address)": "925a9953"
		}
	},
	"abi": [
		{
			"inputs": [
				{
					"internalType": "address",
					"name": "initialOwner",
					"type": "address"
				}
			],
			"stateMutability": "nonpayable",
			"type": "constructor"
		},
		{
			"inputs": [
				{
					"internalType": "address",
					"name": "owner",
					"type": "address"
				}
			],
			"name": "OwnableInvalidOwner",
			"type": "error"
		},
		{
			"inputs": [
				{
					"internalType": "address",
					"name": "account",
					"type": "address"
				}
			],
			"name": "OwnableUnauthorizedAccount",
			"type": "error"
		},
		{
			"anonymous": false,
			"inputs": [
				{
					"indexed": false,
					"internalType": "address",
					"name": "sender",
					"type": "address"
				},
				{
					"indexed": false,
					"internalType": "uint256",
					"name": "amount",
					"type": "uint256"
				}
			],
			"name": "Deposit",
			"type": "event"
		},
		{
			"anonymous": false,
			"inputs": [
				{
					"indexed": false,
					"internalType": "address",
					"name": "_buyer",
					"type": "address"
				},
				{
					"indexed": false,
					"internalType": "uint256",
					"name": "_tokenId",
					"type": "uint256"
				},
				{
					"indexed": false,
					"internalType": "uint256",
					"name": "_price",
					"type": "uint256"
				}
			],
			"name": "NftBuy",
			"type": "event"
		},
		{
			"anonymous": false,
			"inputs": [
				{
					"indexed": false,
					"internalType": "address",
					"name": "_seller",
					"type": "address"
				},
				{
					"indexed": false,
					"internalType": "uint256",
					"name": "_tokenId",
					"type": "uint256"
				},
				{
					"indexed": false,
					"internalType": "uint256",
					"name": "_id",
					"type": "uint256"
				}
			],
			"name": "NftList",
			"type": "event"
		},
		{
			"anonymous": false,
			"inputs": [
				{
					"indexed": true,
					"internalType": "address",
					"name": "previousOwner",
					"type": "address"
				},
				{
					"indexed": true,
					"internalType": "address",
					"name": "newOwner",
					"type": "address"
				}
			],
			"name": "OwnershipTransferred",
			"type": "event"
		},
		{
			"anonymous": false,
			"inputs": [
				{
					"indexed": false,
					"internalType": "address",
					"name": "account",
					"type": "address"
				}
			],
			"name": "Paused",
			"type": "event"
		},
		{
			"anonymous": false,
			"inputs": [
				{
					"indexed": false,
					"internalType": "address",
					"name": "account",
					"type": "address"
				}
			],
			"name": "Unpaused",
			"type": "event"
		},
		{
			"anonymous": false,
			"inputs": [
				{
					"indexed": false,
					"internalType": "address",
					"name": "_buyer",
					"type": "address"
				},
				{
					"indexed": false,
					"internalType": "uint256",
					"name": "_tokenId",
					"type": "uint256"
				},
				{
					"indexed": false,
					"internalType": "uint256",
					"name": "_price",
					"type": "uint256"
				}
			],
			"name": "transferToBuyer",
			"type": "event"
		},
		{
			"anonymous": false,
			"inputs": [
				{
					"indexed": false,
					"internalType": "address",
					"name": "_buyer",
					"type": "address"
				},
				{
					"indexed": false,
					"internalType": "uint256",
					"name": "_tokenId",
					"type": "uint256"
				},
				{
					"indexed": false,
					"internalType": "uint256",
					"name": "_price",
					"type": "uint256"
				}
			],
			"name": "updateToBuyer",
			"type": "event"
		},
		{
			"inputs": [],
			"name": "ERC20",
			"outputs": [
				{
					"internalType": "contract IERC20",
					"name": "",
					"type": "address"
				}
			],
			"stateMutability": "view",
			"type": "function"
		},
		{
			"inputs": [],
			"name": "ERCNFT",
			"outputs": [
				{
					"internalType": "contract IERC721",
					"name": "",
					"type": "address"
				}
			],
			"stateMutability": "view",
			"type": "function"
		},
		{
			"inputs": [
				{
					"internalType": "contract ERC721",
					"name": "_nft",
					"type": "address"
				},
				{
					"internalType": "uint256",
					"name": "_Id",
					"type": "uint256"
				}
			],
			"name": "buyNFT",
			"outputs": [],
			"stateMutability": "payable",
			"type": "function"
		},
		{
			"inputs": [
				{
					"internalType": "contract ERC721",
					"name": "_nft",
					"type": "address"
				},
				{
					"internalType": "uint256",
					"name": "_Id",
					"type": "uint256"
				}
			],
			"name": "cancel",
			"outputs": [],
			"stateMutability": "payable",
			"type": "function"
		},
		{
			"inputs": [
				{
					"internalType": "contract ERC721",
					"name": "_nft",
					"type": "address"
				},
				{
					"internalType": "uint256",
					"name": "_tokenId",
					"type": "uint256"
				}
			],
			"name": "getAllIdListed",
			"outputs": [
				{
					"internalType": "uint256",
					"name": "",
					"type": "uint256"
				}
			],
			"stateMutability": "view",
			"type": "function"
		},
		{
			"inputs": [],
			"name": "getComissionPercentage",
			"outputs": [
				{
					"internalType": "uint256",
					"name": "",
					"type": "uint256"
				}
			],
			"stateMutability": "view",
			"type": "function"
		},
		{
			"inputs": [
				{
					"internalType": "contract ERC721",
					"name": "_nft",
					"type": "address"
				},
				{
					"internalType": "uint256",
					"name": "_tokenId",
					"type": "uint256"
				}
			],
			"name": "getIdListed",
			"outputs": [
				{
					"internalType": "uint256",
					"name": "",
					"type": "uint256"
				}
			],
			"stateMutability": "view",
			"type": "function"
		},
		{
			"inputs": [],
			"name": "getListinglength",
			"outputs": [
				{
					"internalType": "uint256",
					"name": "",
					"type": "uint256"
				}
			],
			"stateMutability": "view",
			"type": "function"
		},
		{
			"inputs": [
				{
					"internalType": "uint256",
					"name": "_Id",
					"type": "uint256"
				}
			],
			"name": "getNFTListing",
			"outputs": [
				{
					"components": [
						{
							"internalType": "contract ERC721",
							"name": "nft",
							"type": "address"
						},
						{
							"internalType": "uint256",
							"name": "tokenId",
							"type": "uint256"
						},
						{
							"internalType": "uint256",
							"name": "price",
							"type": "uint256"
						},
						{
							"internalType": "address",
							"name": "coin",
							"type": "address"
						},
						{
							"internalType": "address",
							"name": "seller",
							"type": "address"
						},
						{
							"internalType": "bool",
							"name": "forSale",
							"type": "bool"
						}
					],
					"internalType": "struct GBMarketplace.NFTListing",
					"name": "",
					"type": "tuple"
				}
			],
			"stateMutability": "view",
			"type": "function"
		},
		{
			"inputs": [
				{
					"internalType": "contract ERC721",
					"name": "_nft",
					"type": "address"
				},
				{
					"internalType": "uint256",
					"name": "_tokenId",
					"type": "uint256"
				},
				{
					"internalType": "uint256",
					"name": "_price",
					"type": "uint256"
				},
				{
					"internalType": "address",
					"name": "_coin",
					"type": "address"
				}
			],
			"name": "listNFT",
			"outputs": [],
			"stateMutability": "payable",
			"type": "function"
		},
		{
			"inputs": [
				{
					"internalType": "uint256",
					"name": "",
					"type": "uint256"
				}
			],
			"name": "listings",
			"outputs": [
				{
					"internalType": "contract ERC721",
					"name": "nft",
					"type": "address"
				},
				{
					"internalType": "uint256",
					"name": "tokenId",
					"type": "uint256"
				},
				{
					"internalType": "uint256",
					"name": "price",
					"type": "uint256"
				},
				{
					"internalType": "address",
					"name": "coin",
					"type": "address"
				},
				{
					"internalType": "address",
					"name": "seller",
					"type": "address"
				},
				{
					"internalType": "bool",
					"name": "forSale",
					"type": "bool"
				}
			],
			"stateMutability": "view",
			"type": "function"
		},
		{
			"inputs": [],
			"name": "owner",
			"outputs": [
				{
					"internalType": "address",
					"name": "",
					"type": "address"
				}
			],
			"stateMutability": "view",
			"type": "function"
		},
		{
			"inputs": [],
			"name": "pauseMarketplace",
			"outputs": [],
			"stateMutability": "nonpayable",
			"type": "function"
		},
		{
			"inputs": [],
			"name": "paused",
			"outputs": [
				{
					"internalType": "bool",
					"name": "",
					"type": "bool"
				}
			],
			"stateMutability": "view",
			"type": "function"
		},
		{
			"inputs": [],
			"name": "renounceOwnership",
			"outputs": [],
			"stateMutability": "nonpayable",
			"type": "function"
		},
		{
			"inputs": [
				{
					"internalType": "uint256",
					"name": "_listingId",
					"type": "uint256"
				}
			],
			"name": "transferNFT",
			"outputs": [],
			"stateMutability": "nonpayable",
			"type": "function"
		},
		{
			"inputs": [
				{
					"internalType": "uint256",
					"name": "_amount",
					"type": "uint256"
				},
				{
					"internalType": "address",
					"name": "_ERC20Address",
					"type": "address"
				}
			],
			"name": "transferOrWithdraw",
			"outputs": [],
			"stateMutability": "nonpayable",
			"type": "function"
		},
		{
			"inputs": [
				{
					"internalType": "address",
					"name": "newOwner",
					"type": "address"
				}
			],
			"name": "transferOwnership",
			"outputs": [],
			"stateMutability": "nonpayable",
			"type": "function"
		},
		{
			"inputs": [],
			"name": "unpauseMarketplace",
			"outputs": [],
			"stateMutability": "nonpayable",
			"type": "function"
		},
		{
			"inputs": [
				{
					"internalType": "uint256",
					"name": "_value",
					"type": "uint256"
				}
			],
			"name": "updateComissionPercentage",
			"outputs": [],
			"stateMutability": "nonpayable",
			"type": "function"
		},
		{
			"inputs": [
				{
					"internalType": "contract ERC721",
					"name": "_nft",
					"type": "address"
				},
				{
					"internalType": "uint256",
					"name": "_Id",
					"type": "uint256"
				},
				{
					"internalType": "address",
					"name": "_sender",
					"type": "address"
				}
			],
			"name": "updateNFT",
			"outputs": [],
			"stateMutability": "nonpayable",
			"type": "function"
		},
		{
			"stateMutability": "payable",
			"type": "receive"
		}
	]
}